{
  "_format": "hh-sol-artifact-1",
  "contractName": "Lottery",
  "sourceName": "contracts/lottery/Lottery.sol",
  "abi": [
    {
      "inputs": [
        {
          "internalType": "contract IERC20",
          "name": "_ODT",
          "type": "address"
        },
        {
          "internalType": "contract LotteryNFT",
          "name": "_lottery",
          "type": "address"
        },
        {
          "internalType": "uint256",
          "name": "_ticketPrice",
          "type": "uint256"
        },
        {
          "internalType": "uint8",
          "name": "_maxNumber",
          "type": "uint8"
        },
        {
          "internalType": "address",
          "name": "_owner",
          "type": "address"
        },
        {
          "internalType": "address",
          "name": "_adminAddress",
          "type": "address"
        }
      ],
      "stateMutability": "nonpayable",
      "type": "constructor"
    },
    {
      "anonymous": false,
      "inputs": [
        {
          "indexed": true,
          "internalType": "address",
          "name": "user",
          "type": "address"
        },
        {
          "indexed": false,
          "internalType": "uint256",
          "name": "tokenId",
          "type": "uint256"
        }
      ],
      "name": "Buy",
      "type": "event"
    },
    {
      "anonymous": false,
      "inputs": [
        {
          "indexed": true,
          "internalType": "address",
          "name": "user",
          "type": "address"
        },
        {
          "indexed": false,
          "internalType": "uint256",
          "name": "tokenid",
          "type": "uint256"
        },
        {
          "indexed": false,
          "internalType": "uint256",
          "name": "amount",
          "type": "uint256"
        }
      ],
      "name": "Claim",
      "type": "event"
    },
    {
      "anonymous": false,
      "inputs": [
        {
          "indexed": true,
          "internalType": "address",
          "name": "user",
          "type": "address"
        },
        {
          "indexed": false,
          "internalType": "uint256",
          "name": "amount",
          "type": "uint256"
        }
      ],
      "name": "DevWithdraw",
      "type": "event"
    },
    {
      "anonymous": false,
      "inputs": [
        {
          "indexed": true,
          "internalType": "uint256",
          "name": "issueIndex",
          "type": "uint256"
        },
        {
          "indexed": false,
          "internalType": "uint8[4]",
          "name": "winningNumbers",
          "type": "uint8[4]"
        }
      ],
      "name": "Drawing",
      "type": "event"
    },
    {
      "anonymous": false,
      "inputs": [
        {
          "indexed": true,
          "internalType": "address",
          "name": "user",
          "type": "address"
        },
        {
          "indexed": false,
          "internalType": "uint256",
          "name": "amount",
          "type": "uint256"
        }
      ],
      "name": "MultiBuy",
      "type": "event"
    },
    {
      "anonymous": false,
      "inputs": [
        {
          "indexed": true,
          "internalType": "address",
          "name": "user",
          "type": "address"
        },
        {
          "indexed": false,
          "internalType": "uint256",
          "name": "amount",
          "type": "uint256"
        }
      ],
      "name": "MultiClaim",
      "type": "event"
    },
    {
      "anonymous": false,
      "inputs": [
        {
          "indexed": true,
          "internalType": "address",
          "name": "previousOwner",
          "type": "address"
        },
        {
          "indexed": true,
          "internalType": "address",
          "name": "newOwner",
          "type": "address"
        }
      ],
      "name": "OwnershipTransferred",
      "type": "event"
    },
    {
      "anonymous": false,
      "inputs": [
        {
          "indexed": true,
          "internalType": "uint256",
          "name": "issueIndex",
          "type": "uint256"
        }
      ],
      "name": "Reset",
      "type": "event"
    },
    {
      "inputs": [],
      "name": "ODT",
      "outputs": [
        {
          "internalType": "contract IERC20",
          "name": "",
          "type": "address"
        }
      ],
      "stateMutability": "view",
      "type": "function"
    },
    {
      "inputs": [],
      "name": "adminAddress",
      "outputs": [
        {
          "internalType": "address",
          "name": "",
          "type": "address"
        }
      ],
      "stateMutability": "view",
      "type": "function"
    },
    {
      "inputs": [
        {
          "internalType": "uint256",
          "name": "_amount",
          "type": "uint256"
        }
      ],
      "name": "adminWithdraw",
      "outputs": [],
      "stateMutability": "nonpayable",
      "type": "function"
    },
    {
      "inputs": [
        {
          "internalType": "uint256",
          "name": "",
          "type": "uint256"
        }
      ],
      "name": "allocation",
      "outputs": [
        {
          "internalType": "uint8",
          "name": "",
          "type": "uint8"
        }
      ],
      "stateMutability": "view",
      "type": "function"
    },
    {
      "inputs": [
        {
          "internalType": "uint256",
          "name": "_price",
          "type": "uint256"
        },
        {
          "internalType": "uint8[4]",
          "name": "_numbers",
          "type": "uint8[4]"
        }
      ],
      "name": "buy",
      "outputs": [],
      "stateMutability": "nonpayable",
      "type": "function"
    },
    {
      "inputs": [
        {
          "internalType": "uint256",
          "name": "_tokenId",
          "type": "uint256"
        }
      ],
      "name": "claimReward",
      "outputs": [],
      "stateMutability": "nonpayable",
      "type": "function"
    },
    {
      "inputs": [],
      "name": "drawed",
      "outputs": [
        {
          "internalType": "bool",
          "name": "",
          "type": "bool"
        }
      ],
      "stateMutability": "view",
      "type": "function"
    },
    {
      "inputs": [
        {
          "internalType": "uint256",
          "name": "_externalRandomNumber",
          "type": "uint256"
        }
      ],
      "name": "drawing",
      "outputs": [],
      "stateMutability": "nonpayable",
      "type": "function"
    },
    {
      "inputs": [
        {
          "internalType": "uint256",
          "name": "n1",
          "type": "uint256"
        },
        {
          "internalType": "uint256",
          "name": "n2",
          "type": "uint256"
        },
        {
          "internalType": "uint256",
          "name": "n3",
          "type": "uint256"
        },
        {
          "internalType": "uint256",
          "name": "n4",
          "type": "uint256"
        }
      ],
      "name": "drawingCheat",
      "outputs": [],
      "stateMutability": "nonpayable",
      "type": "function"
    },
    {
      "inputs": [],
      "name": "drawingPhase",
      "outputs": [
        {
          "internalType": "bool",
          "name": "",
          "type": "bool"
        }
      ],
      "stateMutability": "view",
      "type": "function"
    },
    {
      "inputs": [],
      "name": "enterDrawingPhase",
      "outputs": [],
      "stateMutability": "nonpayable",
      "type": "function"
    },
    {
      "inputs": [
        {
          "internalType": "uint8[4]",
          "name": "number",
          "type": "uint8[4]"
        }
      ],
      "name": "generateNumberIndexKey",
      "outputs": [
        {
          "internalType": "uint64[11]",
          "name": "",
          "type": "uint64[11]"
        }
      ],
      "stateMutability": "pure",
      "type": "function"
    },
    {
      "inputs": [
        {
          "internalType": "uint256",
          "name": "_issueIndex",
          "type": "uint256"
        },
        {
          "internalType": "uint256",
          "name": "_matchingNumber",
          "type": "uint256"
        }
      ],
      "name": "getMatchingRewardAmount",
      "outputs": [
        {
          "internalType": "uint256",
          "name": "",
          "type": "uint256"
        }
      ],
      "stateMutability": "view",
      "type": "function"
    },
    {
      "inputs": [
        {
          "internalType": "uint256",
          "name": "_tokenId",
          "type": "uint256"
        }
      ],
      "name": "getRewardView",
      "outputs": [
        {
          "internalType": "uint256",
          "name": "",
          "type": "uint256"
        }
      ],
      "stateMutability": "view",
      "type": "function"
    },
    {
      "inputs": [
        {
          "internalType": "address",
          "name": "someone",
          "type": "address"
        },
        {
          "internalType": "uint256",
          "name": "issueIndex",
          "type": "uint256"
        }
      ],
      "name": "getTickets",
      "outputs": [
        {
          "internalType": "uint8[4][]",
          "name": "",
          "type": "uint8[4][]"
        }
      ],
      "stateMutability": "view",
      "type": "function"
    },
    {
      "inputs": [
        {
          "internalType": "uint256",
          "name": "_issueIndex",
          "type": "uint256"
        }
      ],
      "name": "getTotalRewards",
      "outputs": [
        {
          "internalType": "uint256",
          "name": "",
          "type": "uint256"
        }
      ],
      "stateMutability": "view",
      "type": "function"
    },
    {
      "inputs": [
        {
          "internalType": "uint256",
          "name": "",
          "type": "uint256"
        },
        {
          "internalType": "uint256",
          "name": "",
          "type": "uint256"
        }
      ],
      "name": "historyAmount",
      "outputs": [
        {
          "internalType": "uint256",
          "name": "",
          "type": "uint256"
        }
      ],
      "stateMutability": "view",
      "type": "function"
    },
    {
      "inputs": [
        {
          "internalType": "uint256",
          "name": "",
          "type": "uint256"
        },
        {
          "internalType": "uint256",
          "name": "",
          "type": "uint256"
        }
      ],
      "name": "historyNumbers",
      "outputs": [
        {
          "internalType": "uint8",
          "name": "",
          "type": "uint8"
        }
      ],
      "stateMutability": "view",
      "type": "function"
    },
    {
      "inputs": [],
      "name": "issueIndex",
      "outputs": [
        {
          "internalType": "uint256",
          "name": "",
          "type": "uint256"
        }
      ],
      "stateMutability": "view",
      "type": "function"
    },
    {
      "inputs": [],
      "name": "lastTimestamp",
      "outputs": [
        {
          "internalType": "uint256",
          "name": "",
          "type": "uint256"
        }
      ],
      "stateMutability": "view",
      "type": "function"
    },
    {
      "inputs": [
        {
          "internalType": "uint256",
          "name": "",
          "type": "uint256"
        },
        {
          "internalType": "uint256",
          "name": "",
          "type": "uint256"
        }
      ],
      "name": "lotteryInfo",
      "outputs": [
        {
          "internalType": "uint256",
          "name": "",
          "type": "uint256"
        }
      ],
      "stateMutability": "view",
      "type": "function"
    },
    {
      "inputs": [],
      "name": "lotteryNFT",
      "outputs": [
        {
          "internalType": "contract LotteryNFT",
          "name": "",
          "type": "address"
        }
      ],
      "stateMutability": "view",
      "type": "function"
    },
    {
      "inputs": [],
      "name": "maxNumber",
      "outputs": [
        {
          "internalType": "uint8",
          "name": "",
          "type": "uint8"
        }
      ],
      "stateMutability": "view",
      "type": "function"
    },
    {
      "inputs": [
        {
          "internalType": "uint256",
          "name": "_price",
          "type": "uint256"
        },
        {
          "internalType": "uint8[4][]",
          "name": "_numbers",
          "type": "uint8[4][]"
        }
      ],
      "name": "multiBuy",
      "outputs": [],
      "stateMutability": "nonpayable",
      "type": "function"
    },
    {
      "inputs": [
        {
          "internalType": "uint256[]",
          "name": "_tickets",
          "type": "uint256[]"
        }
      ],
      "name": "multiClaim",
      "outputs": [],
      "stateMutability": "nonpayable",
      "type": "function"
    },
    {
      "inputs": [],
      "name": "owner",
      "outputs": [
        {
          "internalType": "address",
          "name": "",
          "type": "address"
        }
      ],
      "stateMutability": "view",
      "type": "function"
    },
    {
      "inputs": [],
      "name": "renounceOwnership",
      "outputs": [],
      "stateMutability": "nonpayable",
      "type": "function"
    },
    {
      "inputs": [],
      "name": "reset",
      "outputs": [],
      "stateMutability": "nonpayable",
      "type": "function"
    },
    {
      "inputs": [
        {
          "internalType": "address",
          "name": "_adminAddress",
          "type": "address"
        }
      ],
      "name": "setAdmin",
      "outputs": [],
      "stateMutability": "nonpayable",
      "type": "function"
    },
    {
      "inputs": [
        {
          "internalType": "uint8",
          "name": "_allcation1",
          "type": "uint8"
        },
        {
          "internalType": "uint8",
          "name": "_allcation2",
          "type": "uint8"
        },
        {
          "internalType": "uint8",
          "name": "_allcation3",
          "type": "uint8"
        }
      ],
      "name": "setAllocation",
      "outputs": [],
      "stateMutability": "nonpayable",
      "type": "function"
    },
    {
      "inputs": [
        {
          "internalType": "uint8",
          "name": "_maxNumber",
          "type": "uint8"
        }
      ],
      "name": "setMaxNumber",
      "outputs": [],
      "stateMutability": "nonpayable",
      "type": "function"
    },
    {
      "inputs": [
        {
          "internalType": "uint256",
          "name": "_price",
          "type": "uint256"
        }
      ],
      "name": "setTicketPrice",
      "outputs": [],
      "stateMutability": "nonpayable",
      "type": "function"
    },
    {
      "inputs": [],
      "name": "ticketPrice",
      "outputs": [
        {
          "internalType": "uint256",
          "name": "",
          "type": "uint256"
        }
      ],
      "stateMutability": "view",
      "type": "function"
    },
    {
      "inputs": [],
      "name": "totalAddresses",
      "outputs": [
        {
          "internalType": "uint256",
          "name": "",
          "type": "uint256"
        }
      ],
      "stateMutability": "view",
      "type": "function"
    },
    {
      "inputs": [],
      "name": "totalAmount",
      "outputs": [
        {
          "internalType": "uint256",
          "name": "",
          "type": "uint256"
        }
      ],
      "stateMutability": "view",
      "type": "function"
    },
    {
      "inputs": [],
      "name": "totalBurn",
      "outputs": [
        {
          "internalType": "uint256",
          "name": "",
          "type": "uint256"
        }
      ],
      "stateMutability": "view",
      "type": "function"
    },
    {
      "inputs": [
        {
          "internalType": "address",
          "name": "newOwner",
          "type": "address"
        }
      ],
      "name": "transferOwnership",
      "outputs": [],
      "stateMutability": "nonpayable",
      "type": "function"
    },
    {
      "inputs": [
        {
          "internalType": "uint256",
          "name": "",
          "type": "uint256"
        },
        {
          "internalType": "uint64",
          "name": "",
          "type": "uint64"
        }
      ],
      "name": "userBuyAmountSum",
      "outputs": [
        {
          "internalType": "uint256",
          "name": "",
          "type": "uint256"
        }
      ],
      "stateMutability": "view",
      "type": "function"
    },
    {
      "inputs": [
        {
          "internalType": "address",
          "name": "",
          "type": "address"
        },
        {
          "internalType": "uint256",
          "name": "",
          "type": "uint256"
        }
      ],
      "name": "userInfo",
      "outputs": [
        {
          "internalType": "uint256",
          "name": "",
          "type": "uint256"
        }
      ],
      "stateMutability": "view",
      "type": "function"
    },
    {
      "inputs": [
        {
          "internalType": "address",
          "name": "",
          "type": "address"
        },
        {
          "internalType": "uint256",
          "name": "",
          "type": "uint256"
        },
        {
          "internalType": "uint256",
          "name": "",
          "type": "uint256"
        }
      ],
      "name": "userInfoByIssueIndex",
      "outputs": [
        {
          "internalType": "uint256",
          "name": "",
          "type": "uint256"
        }
      ],
      "stateMutability": "view",
      "type": "function"
    },
    {
      "inputs": [
        {
          "internalType": "uint256",
          "name": "",
          "type": "uint256"
        }
      ],
      "name": "winningNumbers",
      "outputs": [
        {
          "internalType": "uint8",
          "name": "",
          "type": "uint8"
        }
      ],
      "stateMutability": "view",
      "type": "function"
    }
  ],
  "bytecode": "0x6000600c819055600d819055600e8190556010819055610100604052608081815260a082905260c082905260e091909152620000409060139060046200015a565b503480156200004e57600080fd5b506040516200389d3803806200389d83398101604081905262000071916200020f565b600280546001600160a01b03199081166001600160a01b038981169190911790925560038054821688841617815560058790556004805460ff60a01b1916600160a01b60ff8916021790921692841692909217905542600f55604080516060810182526032815260146020820152600a91810191909152620000f791600191906200015a565b5062000103826200010f565b505050505050620002b3565b600080546001600160a01b0319166001600160a01b03831690811782556040519091907f8be0079c531659141344cd1fd0a4f28419497f9722a3daafe3b4186f6b6457e0908290a350565b600183019183908215620001e25791602002820160005b83821115620001b157835183826101000a81548160ff021916908360ff160217905550926020019260010160208160000104928301926001030262000171565b8015620001e05782816101000a81549060ff0219169055600101602081600001049283019260010302620001b1565b505b50620001f0929150620001f4565b5090565b5b80821115620001f057805460ff19168155600101620001f5565b60008060008060008060c0878903121562000228578182fd5b865162000235816200029a565b602088015190965062000248816200029a565b60408801516060890151919650945060ff8116811462000266578283fd5b608088015190935062000279816200029a565b60a08801519092506200028c816200029a565b809150509295509295509295565b6001600160a01b0381168114620002b057600080fd5b50565b6135da80620002c36000396000f3fe608060405234801561001057600080fd5b50600436106102535760003560e01c806360c8edac11610146578063a42206c9116100c3578063d411b0fa11610087578063d411b0fa146104c6578063d826f88f146104d9578063e1345416146104e1578063e8adfbc7146104e9578063f2fde38b146104f1578063fc6f94681461050457610253565b8063a42206c914610472578063ae169a5014610485578063c39f49c014610498578063cfad5277146104ab578063d1f7dbcf146104b357610253565b80637c5b4a371161010a5780637c5b4a37146104045780637f6ba93f14610417578063850bad941461043757806385dcdf1b1461044a5780638da5cb5b1461046a57610253565b806360c8edac146103b95780636575243f146103ce5780636a28f828146103e1578063704b6c02146103e9578063715018a6146103fc57610253565b8063324a5562116101d45780634ed73d28116101985780634ed73d281461035a578063552164ee1461036d57806359bcbd68146103805780635c17623a146103935780635d182e76146103a657610253565b8063324a5562146103025780633a4f6999146103155780633c9f861d1461032a578063438209f5146103325780634e45f0951461034757610253565b80631a39d8ef1161021b5780631a39d8ef146102b95780631ff68866146102c157806321ce919d146102c95780632bdff851146102dc5780632f506b20146102ef57610253565b806303e0cce2146102585780631209b1f61461028157806314c20d5714610289578063159816501461029e57806319d8ac61146102b1575b600080fd5b61026b610266366004612ab8565b61050c565b60405161027891906134e7565b60405180910390f35b61026b610547565b61029c610297366004612d02565b61054d565b005b61029c6102ac366004612c2b565b6108be565b61026b6108ed565b61026b6108f3565b61029c6108f9565b61026b6102d7366004612a8d565b610957565b61029c6102ea366004612c5b565b610985565b61026b6102fd366004612d80565b610d1b565b61029c610310366004612dba565b610d38565b61031d610d82565b60405161027891906134fe565b61026b610d92565b61033a610d98565b6040516102789190612fcd565b61031d610355366004612c2b565b610da1565b61029c610368366004612aec565b610dc8565b61026b61037b366004612c2b565b611054565b61031d61038e366004612d2e565b6110c8565b61029c6103a1366004612dd6565b6110fe565b61029c6103b4366004612d4f565b611185565b6103c161132b565b6040516102789190612e62565b61026b6103dc366004612d2e565b61133a565b61026b611353565b61029c6103f7366004612a55565b611359565b61029c6113a5565b61029c610412366004612c2b565b611419565b61042a610425366004612a8d565b61149e565b6040516102789190612ee2565b61031d610445366004612c2b565b611639565b61045d610458366004612b80565b611646565b6040516102789190612f68565b6103c16117cd565b61029c610480366004612c2b565b6117dc565b61029c610493366004612c2b565b611a62565b61026b6104a6366004612d2e565b611c78565b61026b611c91565b61026b6104c1366004612d2e565b611c97565b61026b6104d4366004612c2b565b611cc8565b61029c611fc3565b61033a6120ff565b6103c161210a565b61029c6104ff366004612a55565b612119565b6103c16121c4565b600b602052826000526040600020602052816000526040600020818154811061053157fe5b9060005260206000200160009250925050505481565b60055481565b6105556120ff565b1561057b5760405162461bcd60e51b815260040161057290613370565b60405180910390fd5b60125460ff161561059e5760405162461bcd60e51b8152600401610572906132c1565b60055482146105bf5760405162461bcd60e51b8152600401610572906132f8565b60005b60048110156106145760048054600160a01b900460ff16908390839081106105e657fe5b602002015160ff16111561060c5760405162461bcd60e51b815260040161057290613080565b6001016105c2565b50600354600c54604051620dce4760ea1b81526000926001600160a01b0316916337391c009161064c91339187918991600401612e76565b602060405180830381600087803b15801561066657600080fd5b505af115801561067a573d6000803e3d6000fd5b505050506040513d601f19601f8201168201806040525081019061069e9190612c43565b600c546000908152600760209081526040808320805460018101825590845282842001849055338352600a9091529020549091506106e057600d805460010190555b336000818152600a6020908152604080832080546001818101835591855283852001869055938352600b8252808320600c54845282528220805493840181558252902001819055600e5461073490846121d3565b600e55600061077a600160025b60208104919091015460015460ff601f90931661010090810a9092048316926107749282048116918391606491166121ff565b906121ff565b9050610791606461078b8684612227565b90612261565b60108054909101905542600f556107a661287a565b6107af84611646565b905060005b600b81101561085d57600c546000908152600960205260408120610815918891908585600b81106107e157fe5b60200201516001600160401b03166001600160401b03168152602001908152602001600020546121d390919063ffffffff16565b600c546000908152600960205260408120908484600b811061083357fe5b602090810291909101516001600160401b03168252810191909152604001600020556001016107b4565b50600254610876906001600160a01b0316333088612293565b336001600160a01b03167fe3d4187f6ca4248660cc0ac8b8056515bac4a8132be2eca31d6d0cc170722a7e846040516108af91906134e7565b60405180910390a25050505050565b6004546001600160a01b031633146108e85760405162461bcd60e51b8152600401610572906133dc565b600555565b600f5481565b600e5481565b6004546001600160a01b031633146109235760405162461bcd60e51b8152600401610572906133dc565b61092b6120ff565b156109485760405162461bcd60e51b8152600401610572906134c7565b6012805460ff19166001179055565b600a602052816000526040600020818154811061097057fe5b90600052602060002001600091509150505481565b61098d6120ff565b156109aa5760405162461bcd60e51b815260040161057290613370565b60125460ff16156109cd5760405162461bcd60e51b8152600401610572906132c1565b60055482146109ee5760405162461bcd60e51b8152600401610572906132f8565b6000805b8251811015610cbc5760005b6004811015610a9957600460149054906101000a900460ff1660ff16848381518110610a2657fe5b60200260200101518260048110610a3957fe5b602002015160ff1611158015610a7557506000848381518110610a5857fe5b60200260200101518260048110610a6b57fe5b602002015160ff16115b610a915760405162461bcd60e51b815260040161057290613080565b6001016109fe565b5060035483516000916001600160a01b0316906337391c00903390879086908110610ac057fe5b602002602001015188600c546040518563ffffffff1660e01b8152600401610aeb9493929190612e76565b602060405180830381600087803b158015610b0557600080fd5b505af1158015610b19573d6000803e3d6000fd5b505050506040513d601f19601f82011682018060405250810190610b3d9190612c43565b600c546000908152600760209081526040808320805460018101825590845282842001849055338352600a909152902054909150610b7f57600d805460010190555b336000818152600a6020908152604080832080546001818101835591855283852001869055938352600b8252808320600c54845282528220805493840181558252902001819055600e54610bd390866121d3565b600e556000610be460016002610741565b9050610bf5606461078b8884612227565b60108054909101905542600f55610c0c84876121d3565b9350610c1661287a565b610c32868581518110610c2557fe5b6020026020010151611646565b905060005b600b811015610cac57600c546000908152600960205260408120610c64918a91908585600b81106107e157fe5b600c546000908152600960205260408120908484600b8110610c8257fe5b602090810291909101516001600160401b0316825281019190915260400160002055600101610c37565b5050600190920191506109f29050565b50600254610cd5906001600160a01b0316333084612293565b336001600160a01b03167f96c35ad1cc1743f26cb87980c38042de8082358ec6d171a7986d6e11dddfe85782604051610d0e91906134e7565b60405180910390a2505050565b600960209081526000928352604080842090915290825290205481565b6004546001600160a01b03163314610d625760405162461bcd60e51b8152600401610572906133dc565b6004805460ff909216600160a01b0260ff60a01b19909216919091179055565b600454600160a01b900460ff1681565b60105481565b60125460ff1681565b60118160048110610dae57fe5b60209182820401919006915054906101000a900460ff1681565b6000805b8251811015610f8c5760035483516001600160a01b0390911690636352211e90859084908110610df857fe5b60200260200101516040518263ffffffff1660e01b8152600401610e1c91906134e7565b60206040518083038186803b158015610e3457600080fd5b505afa158015610e48573d6000803e3d6000fd5b505050506040513d601f19601f82011682018060405250810190610e6c9190612a71565b6001600160a01b0316336001600160a01b031614610e9c5760405162461bcd60e51b81526004016105729061320a565b60035483516001600160a01b03909116906336dbd2f990859084908110610ebf57fe5b60200260200101516040518263ffffffff1660e01b8152600401610ee391906134e7565b60206040518083038186803b158015610efb57600080fd5b505afa158015610f0f573d6000803e3d6000fd5b505050506040513d601f19601f82011682018060405250810190610f339190612c0b565b15610f505760405162461bcd60e51b8152600401610572906132a0565b6000610f6e848381518110610f6157fe5b6020026020010151611cc8565b90508015610f8357610f8081846121d3565b92505b50600101610dcc565b50600354604051637431035560e01b81526001600160a01b0390911690637431035590610fbd908590600401612f30565b600060405180830381600087803b158015610fd757600080fd5b505af1158015610feb573d6000803e3d6000fd5b50505050600081111561100f5760025461100f906001600160a01b031633836122eb565b336001600160a01b03167f6606374655494f5c0e2d6f392656e9777afd9ac5f61527d1bcad50b7e918a03e8260405161104891906134e7565b60405180910390a25050565b6000600c548211156110785760405162461bcd60e51b8152600401610572906130ad565b6110806120ff565b15801561108e5750600c5482145b1561109c5750600e546110c3565b600082815260086020526040812080549091906110b557fe5b906000526020600020015490505b919050565b600660205281600052604060002081600481106110e157fe5b602081049091015460ff601f9092166101000a9004169150829050565b6004546001600160a01b031633146111285760405162461bcd60e51b8152600401610572906133dc565b6064818385010160ff161061114f5760405162461bcd60e51b815260040161057290613401565b6040805160608101825260ff8086168252848116602083015283169181019190915261117f906001906003612899565b50505050565b6004546001600160a01b031633146111af5760405162461bcd60e51b8152600401610572906133dc565b6111b76120ff565b156111d45760405162461bcd60e51b81526004016105729061303c565b60125460ff166111f65760405162461bcd60e51b815260040161057290613269565b6004546000908190600160a01b900460ff16436000190140825b600a81101561122d57611224600c54611054565b50600101611210565b5060005a6011805460ff8a8116620100000262ff00001960ff199093168e83161761ff001916610100928e1692909202919091179190911617815590915086906003602091828204019190066101000a81548160ff021916908360ff160217905550601160066000600c5481526020019081526020016000209060046112b492919061292c565b506112bd61230f565b600c5460009081526008602052604090206112d991600461295f565b506012805460ff19169055600c546040517fa13e935b188993737b3009d62bd916dcbe9e82d8236d75981eeadf26a1460d3d9061131890601190612f9a565b60405180910390a2505050505050505050565b6002546001600160a01b031681565b6007602052816000526040600020818154811061097057fe5b600c5481565b6000546001600160a01b031633146113835760405162461bcd60e51b8152600401610572906133a7565b600480546001600160a01b0319166001600160a01b0392909216919091179055565b6000546001600160a01b031633146113cf5760405162461bcd60e51b8152600401610572906133a7565b600080546040516001600160a01b03909116907f8be0079c531659141344cd1fd0a4f28419497f9722a3daafe3b4186f6b6457e0908390a3600080546001600160a01b0319169055565b6004546001600160a01b031633146114435760405162461bcd60e51b8152600401610572906133dc565b60025461145a906001600160a01b031633836122eb565b336001600160a01b03167f050d1c64cc22ce461b9bc14f6b73852566da02b03c155242bc63169d1fec42aa8260405161149391906134e7565b60405180910390a250565b6001600160a01b0382166000908152600b6020908152604080832084845290915290205460609081906001600160401b03811180156114dc57600080fd5b5060405190808252806020026020018201604052801561151657816020015b6115036129a6565b8152602001906001900390816114fb5790505b50905060005b6001600160a01b0385166000908152600b6020908152604080832087845290915290205481101561162f576001600160a01b0385166000908152600b60209081526040808320878452909152812080548390811061157657fe5b9060005260206000200154905061158b6129a6565b600354604051635f8e26a760e01b81526001600160a01b0390911690635f8e26a7906115bb9085906004016134e7565b60806040518083038186803b1580156115d357600080fd5b505afa1580156115e7573d6000803e3d6000fd5b505050506040513d601f19601f8201168201806040525081019061160b9190612b9b565b90508084848151811061161a57fe5b6020908102919091010152505060010161151c565b5090505b92915050565b60018160038110610dae57fe5b61164e61287a565b6116566129a6565b825160ff90811682526020808501518216908301526040808501518216908301526060808501519091169082015261168c61287a565b6060828101805160408086018051602080890180518a516201000094850264010000000092830266010000000000009092029190910101909601650100020003009081016001600160401b039081168b52855183518d51908702908a02010163010002009081018216948c0194909452885183518d51908702908a02010163010003009081018216978c0197909752885186518d51908702908a020101630200030090810182169a8c019a909a5288518651845190870299029890980190970101861660808a015280518a51840201610100908101871660a08b015284518b5185020161020001871660c08b015287519a518402909a0161030001861660e08a015283518151840201909101851698880198909852845197518102909701909101821661012086015291519151909402010190911661014082015292915050565b6000546001600160a01b031690565b6004546001600160a01b031633146118065760405162461bcd60e51b8152600401610572906133dc565b61180e6120ff565b1561182b5760405162461bcd60e51b81526004016105729061303c565b60125460ff1661184d5760405162461bcd60e51b815260040161057290613269565b6004546000908190600160a01b900460ff16436000190140825b600a8110156118845761187b600c54611054565b50600101611867565b5060005a905081600d5482886040516020016118a39493929190612fee565b60408051601f198184030181529082905280516020918201206011805460ff191687830660010160ff811691909117909155600e5491985096506118ed92859285918b9101612fee565b60408051601f198184030181529082905280516020918201206011805460ff8884066001019081166101000261ff001990921691909117909155600f54919850965061193f92859285918b9101612fee565b60408051808303601f190181529082905280516020918201206011805460ff600189850601908116620100000262ff00001990921691909117909155909750955061199091849184918a9101612fd8565b60408051808303601f1901815291815281516020928301206011805460ff60018985060190811663010000000263ff00000019909216919091178255600c5460009081526006909552929093209097509095506119ee91600461292c565b506119f761230f565b600c546000908152600860205260409020611a1391600461295f565b506012805460ff19169055600c546040517fa13e935b188993737b3009d62bd916dcbe9e82d8236d75981eeadf26a1460d3d90611a5290601190612f9a565b60405180910390a2505050505050565b6003546040516331a9108f60e11b81526001600160a01b0390911690636352211e90611a929084906004016134e7565b60206040518083038186803b158015611aaa57600080fd5b505afa158015611abe573d6000803e3d6000fd5b505050506040513d601f19601f82011682018060405250810190611ae29190612a71565b6001600160a01b0316336001600160a01b031614611b125760405162461bcd60e51b81526004016105729061320a565b6003546040516336dbd2f960e01b81526001600160a01b03909116906336dbd2f990611b429084906004016134e7565b60206040518083038186803b158015611b5a57600080fd5b505afa158015611b6e573d6000803e3d6000fd5b505050506040513d601f19601f82011682018060405250810190611b929190612c0b565b15611baf5760405162461bcd60e51b8152600401610572906132a0565b6000611bba82611cc8565b600354604051630ae169a560e41b81529192506001600160a01b03169063ae169a5090611beb9085906004016134e7565b600060405180830381600087803b158015611c0557600080fd5b505af1158015611c19573d6000803e3d6000fd5b505050506000811115611c3d57600254611c3d906001600160a01b031633836122eb565b336001600160a01b03167f34fcbac0073d7c3d388e51312faf357774904998eeb8fca628b9e6f65ee1cbf783836040516110489291906134f0565b6008602052816000526040600020818154811061097057fe5b600d5481565b600082815260086020526040812080546005849003908110611cb557fe5b9060005260206000200154905092915050565b600354604051631bf1e00f60e01b815260009182916001600160a01b0390911690631bf1e00f90611cfd9086906004016134e7565b60206040518083038186803b158015611d1557600080fd5b505afa158015611d29573d6000803e3d6000fd5b505050506040513d601f19601f82011682018060405250810190611d4d9190612c43565b9050611d576129a6565b600354604051635f8e26a760e01b81526001600160a01b0390911690635f8e26a790611d879087906004016134e7565b60806040518083038186803b158015611d9f57600080fd5b505afa158015611db3573d6000803e3d6000fd5b505050506040513d601f19601f82011682018060405250810190611dd79190612b9b565b9050611de16129a6565b600083815260066020526040808220815160808101928390529290916004918390855b825461010083900a900460ff16815260206001928301818104948501949093039092029101808411611e045790505050505050905080600060048110611e4657fe5b602002015160ff16611e6a5760405162461bcd60e51b81526004016105729061305c565b6000805b6004811015611eb457838160048110611e8357fe5b602002015160ff16838260048110611e9757fe5b602002015160ff161415611eac578160010191505b600101611e6e565b5060006001821115611fa957600354604051637bd0606560e11b81526000916001600160a01b03169063f7a0c0ca90611ef1908b906004016134e7565b60206040518083038186803b158015611f0957600080fd5b505afa158015611f1d573d6000803e3d6000fd5b505050506040513d601f19601f82011682018060405250810190611f419190612c43565b90506000611f82606461078b60018760040360038110611f5d57fe5b602081049091015460ff601f9092166101000a900416611f7c8b611054565b90612227565b9050611fa481611f7c611f958a88611c97565b61078b8664e8d4a51000612227565b925050505b611fb88164e8d4a51000612261565b979650505050505050565b6004546001600160a01b03163314611fed5760405162461bcd60e51b8152600401610572906133dc565b611ff56120ff565b6120115760405162461bcd60e51b81526004016105729061345c565b42600f556000600d819055600e556011805463ffffffff191690556012805460ff19169055600c80546001810190915561204c906004611c97565b6120d157600154600c546000916120779160649161078b9160ff90911690611f7c9060001901611054565b6040805160808101918290529192506120cf918391601390600490826000855b825461010083900a900460ff16815260206001928301818104948501949093039092029101808411612097579050505050505061256e565b505b600c546040517f01c3cbb0d62726ab09d163873ebf9aed99dd8dc08e57bc938f458132fd178cf690600090a2565b60115460ff16151590565b6003546001600160a01b031681565b6000546001600160a01b031633146121435760405162461bcd60e51b8152600401610572906133a7565b6001600160a01b0381166121695760405162461bcd60e51b8152600401610572906130e4565b600080546040516001600160a01b03808516939216917f8be0079c531659141344cd1fd0a4f28419497f9722a3daafe3b4186f6b6457e091a3600080546001600160a01b0319166001600160a01b0392909216919091179055565b6004546001600160a01b031681565b6000828201838110156121f85760405162461bcd60e51b81526004016105729061312a565b9392505050565b6000828211156122215760405162461bcd60e51b81526004016105729061318d565b50900390565b60008261223657506000611633565b8282028284828161224357fe5b04146121f85760405162461bcd60e51b81526004016105729061332f565b60008082116122825760405162461bcd60e51b815260040161057290613232565b81838161228b57fe5b049392505050565b61117f846323b872dd60e01b8585856040516024016122b493929190612ea5565b60408051601f198184030181529190526020810180516001600160e01b03166001600160e01b0319909316929092179091526126df565b61230a8363a9059cbb60e01b84846040516024016122b4929190612ec9565b505050565b6123176129a6565b61231f61287a565b60408051608081019182905261237291601190600490826000855b825461010083900a900460ff1681526020600192830181810494850194909303909202910180841161233a5790505050505050611646565b600c54600081815260096020818152604080842086516001600160401b0390811686528184528286205487875285855288850151909116865281845291852054958552929091529394506123f9918560025b60200201516001600160401b03166001600160401b0316815260200190815260200160002054826121d390919063ffffffff16565b600c54600090815260096020526040812091925061241a91908560036123c4565b600c54600090815260096020526040812091925061243b91908560046123c4565b9050600061245461244d846004612227565b83906121ff565b600c54600081815260096020818152604080842060a08b01516001600160401b03168552808352908420549484529190529293509091612496918760066123c4565b600c5460009081526009602052604081209192506124b791908760076123c4565b600c5460009081526009602052604081209192506124d891908760086123c4565b600c54600090815260096020819052604082209293506124fb92919088906123c4565b600c54600090815260096020526040812091925061251c919087600a6123c4565b9050600061254361252e856003612227565b61077461253c886006612227565b85906121d3565b60408051608081018252600e5481526020810197909752860193909352505060608301525091505090565b6125766120ff565b156125935760405162461bcd60e51b815260040161057290613370565b60005b60048110156125e85760048054600160a01b900460ff16908390839081106125ba57fe5b602002015160ff1611156125e05760405162461bcd60e51b815260040161057290613161565b600101612596565b50600354600c54604051620dce4760ea1b81526000926001600160a01b0316916337391c009161262091309187918991600401612e76565b602060405180830381600087803b15801561263a57600080fd5b505af115801561264e573d6000803e3d6000fd5b505050506040513d601f19601f820116820180604052508101906126729190612c43565b600c54600090815260076020908152604082208054600181018255908352912001819055600e549091506126a690846121d3565b600e5542600f5560405130907fe3d4187f6ca4248660cc0ac8b8056515bac4a8132be2eca31d6d0cc170722a7e90610d0e9084906134e7565b6060612734826040518060400160405280602081526020017f5361666545524332303a206c6f772d6c6576656c2063616c6c206661696c6564815250856001600160a01b031661276e9092919063ffffffff16565b80519091501561230a57808060200190518101906127529190612c0b565b61230a5760405162461bcd60e51b81526004016105729061347d565b606061277d8484600085612785565b949350505050565b6060824710156127a75760405162461bcd60e51b8152600401610572906131c4565b6127b08561283b565b6127cc5760405162461bcd60e51b815260040161057290613425565b60006060866001600160a01b031685876040516127e99190612e46565b60006040518083038185875af1925050503d8060008114612826576040519150601f19603f3d011682016040523d82523d6000602084013e61282b565b606091505b5091509150611fb8828286612841565b3b151590565b606083156128505750816121f8565b8251156128605782518084602001fd5b8160405162461bcd60e51b81526004016105729190613009565b604051806101600160405280600b906020820280368337509192915050565b60018301918390821561291c5791602002820160005b838211156128ed57835183826101000a81548160ff021916908360ff16021790555092602001926001016020816000010492830192600103026128af565b801561291a5782816101000a81549060ff02191690556001016020816000010492830192600103026128ed565b505b506129289291506129c4565b5090565b60018301918390821561291c5791601f016020900482015b8281111561291c578254825591600101919060010190612944565b82805482825590600052602060002090810192821561299a579160200282015b8281111561299a57825182559160200191906001019061297f565b506129289291506129dd565b60405180608001604052806004906020820280368337509192915050565b5b8082111561292857805460ff191681556001016129c5565b5b8082111561292857600081556001016129de565b600082601f830112612a02578081fd5b612a0c608061350c565b9050808284608085011115612a2057600080fd5b60005b6004811015612a4c578135612a3781613595565b83526020928301929190910190600101612a23565b50505092915050565b600060208284031215612a66578081fd5b81356121f88161357d565b600060208284031215612a82578081fd5b81516121f88161357d565b60008060408385031215612a9f578081fd5b8235612aaa8161357d565b946020939093013593505050565b600080600060608486031215612acc578081fd5b8335612ad78161357d565b95602085013595506040909401359392505050565b60006020808385031215612afe578182fd5b82356001600160401b03811115612b13578283fd5b8301601f81018513612b23578283fd5b8035612b36612b3182613532565b61350c565b8181528381019083850185840285018601891015612b52578687fd5b8694505b83851015612b74578035835260019490940193918501918501612b56565b50979650505050505050565b600060808284031215612b91578081fd5b6121f883836129f2565b600060808284031215612bac578081fd5b82601f830112612bba578081fd5b612bc4608061350c565b808385608086011115612bd5578384fd5b835b6004811015612c00578151612beb81613595565b84526020938401939190910190600101612bd7565b509095945050505050565b600060208284031215612c1c578081fd5b815180151581146121f8578182fd5b600060208284031215612c3c578081fd5b5035919050565b600060208284031215612c54578081fd5b5051919050565b60008060408385031215612c6d578182fd5b823591506020808401356001600160401b03811115612c8a578283fd5b8401601f81018613612c9a578283fd5b8035612ca8612b3182613532565b818152838101908385016080808502860187018b1015612cc6578788fd5b8795505b84861015612cf257612cdc8b836129f2565b8452600195909501949286019290810190612cca565b5096999098509650505050505050565b60008060a08385031215612d14578182fd5b82359150612d2584602085016129f2565b90509250929050565b60008060408385031215612d40578182fd5b50508035926020909101359150565b60008060008060808587031215612d64578182fd5b5050823594602084013594506040840135936060013592509050565b60008060408385031215612d92578182fd5b8235915060208301356001600160401b0381168114612daf578182fd5b809150509250929050565b600060208284031215612dcb578081fd5b81356121f881613595565b600080600060608486031215612dea578081fd5b8335612df581613595565b92506020840135612e0581613595565b91506040840135612e1581613595565b809150509250925092565b8060005b600481101561117f57815160ff16845260209384019390910190600101612e24565b60008251612e58818460208701613551565b9190910192915050565b6001600160a01b0391909116815260200190565b6001600160a01b038516815260e08101612e936020830186612e20565b60a082019390935260c0015292915050565b6001600160a01b039384168152919092166020820152604081019190915260600190565b6001600160a01b03929092168252602082015260400190565b6020808252825182820181905260009190848201906040850190845b81811015612f2457612f11838551612e20565b9284019260809290920191600101612efe565b50909695505050505050565b6020808252825182820181905260009190848201906040850190845b81811015612f2457835183529284019291840191600101612f4c565b6101608101818360005b600b811015612a4c5781516001600160401b0316835260209283019290910190600101612f72565b905460ff8082168352600882901c81166020840152601082901c8116604084015260189190911c16606082015260800190565b901515815260200190565b9283526020830191909152604082015260600190565b93845260208401929092526040830152606082015260800190565b6000602082528251806020840152613028816040850160208701613551565b601f01601f19169190910160400192915050565b60208082526006908201526572657365743f60d01b604082015260600190565b6020808252600a90820152691b9bdd08191c985dd95960b21b604082015260600190565b602080825260139082015272657863656564206e756d6265722073636f706560681b604082015260600190565b60208082526019908201527f5f6973737565496e646578203c3d206973737565496e64657800000000000000604082015260600190565b60208082526026908201527f4f776e61626c653a206e6577206f776e657220697320746865207a65726f206160408201526564647265737360d01b606082015260800190565b6020808252601b908201527f536166654d6174683a206164646974696f6e206f766572666c6f770000000000604082015260600190565b60208082526012908201527165786365656420746865206d6178696d756d60701b604082015260600190565b6020808252601e908201527f536166654d6174683a207375627472616374696f6e206f766572666c6f770000604082015260600190565b60208082526026908201527f416464726573733a20696e73756666696369656e742062616c616e636520666f6040820152651c8818d85b1b60d21b606082015260800190565b6020808252600e908201526d3737ba10333937b69037bbb732b960911b604082015260600190565b6020808252601a908201527f536166654d6174683a206469766973696f6e206279207a65726f000000000000604082015260600190565b60208082526019908201527f656e7465722064726177696e6720706861736520666972737400000000000000604082015260600190565b60208082526007908201526618db185a5b595960ca1b604082015260600190565b60208082526018908201527f64726177696e672c2063616e206e6f7420627579206e6f770000000000000000604082015260600190565b60208082526019908201527f7072696365206d7573742061626f7665206d696e507269636500000000000000604082015260600190565b60208082526021908201527f536166654d6174683a206d756c7469706c69636174696f6e206f766572666c6f6040820152607760f81b606082015260800190565b60208082526017908201527f6472617765642c2063616e206e6f7420627579206e6f77000000000000000000604082015260600190565b6020808252818101527f4f776e61626c653a2063616c6c6572206973206e6f7420746865206f776e6572604082015260600190565b6020808252600b908201526a61646d696e3a207775743f60a81b604082015260600190565b6020808252600a90820152690657863656564203130360b41b604082015260600190565b6020808252601d908201527f416464726573733a2063616c6c20746f206e6f6e2d636f6e7472616374000000604082015260600190565b6020808252600790820152666472617765643f60c81b604082015260600190565b6020808252602a908201527f5361666545524332303a204552433230206f7065726174696f6e20646964206e6040820152691bdd081cdd58d8d9595960b21b606082015260800190565b602080825260069082015265191c985dd95960d21b604082015260600190565b90815260200190565b918252602082015260400190565b60ff91909116815260200190565b6040518181016001600160401b038111828210171561352a57600080fd5b604052919050565b60006001600160401b03821115613547578081fd5b5060209081020190565b60005b8381101561356c578181015183820152602001613554565b8381111561117f5750506000910152565b6001600160a01b038116811461359257600080fd5b50565b60ff8116811461359257600080fdfea264697066735822122081a7d666655d49af1865d5d31a4a21cdc804ebfd64e34af6b97b9446a3301fb164736f6c634300060c0033",
  "linkReferences": {},
  "deployedLinkReferences": {}
}