{
  "_format": "hh-sol-artifact-1",
  "contractName": "Lottery",
  "sourceName": "contracts/lottery/Lottery.sol",
  "abi": [
    {
      "inputs": [
        {
          "internalType": "contract IERC20",
          "name": "_ODT",
          "type": "address"
        },
        {
          "internalType": "contract LotteryNFT",
          "name": "_lottery",
          "type": "address"
        },
        {
          "internalType": "uint256",
          "name": "_ticketPrice",
          "type": "uint256"
        },
        {
          "internalType": "uint8",
          "name": "_maxNumber",
          "type": "uint8"
        },
        {
          "internalType": "address",
          "name": "_owner",
          "type": "address"
        },
        {
          "internalType": "address",
          "name": "_adminAddress",
          "type": "address"
        },
        {
          "internalType": "address",
          "name": "_burnAddress",
          "type": "address"
        }
      ],
      "stateMutability": "nonpayable",
      "type": "constructor"
    },
    {
      "anonymous": false,
      "inputs": [
        {
          "indexed": true,
          "internalType": "address",
          "name": "user",
          "type": "address"
        },
        {
          "indexed": false,
          "internalType": "uint256",
          "name": "tokenId",
          "type": "uint256"
        }
      ],
      "name": "Buy",
      "type": "event"
    },
    {
      "anonymous": false,
      "inputs": [
        {
          "indexed": true,
          "internalType": "address",
          "name": "user",
          "type": "address"
        },
        {
          "indexed": false,
          "internalType": "uint256",
          "name": "tokenid",
          "type": "uint256"
        },
        {
          "indexed": false,
          "internalType": "uint256",
          "name": "amount",
          "type": "uint256"
        }
      ],
      "name": "Claim",
      "type": "event"
    },
    {
      "anonymous": false,
      "inputs": [
        {
          "indexed": true,
          "internalType": "address",
          "name": "user",
          "type": "address"
        },
        {
          "indexed": false,
          "internalType": "uint256",
          "name": "amount",
          "type": "uint256"
        }
      ],
      "name": "DevWithdraw",
      "type": "event"
    },
    {
      "anonymous": false,
      "inputs": [
        {
          "indexed": true,
          "internalType": "uint256",
          "name": "issueIndex",
          "type": "uint256"
        },
        {
          "indexed": false,
          "internalType": "uint8[4]",
          "name": "winningNumbers",
          "type": "uint8[4]"
        }
      ],
      "name": "Drawing",
      "type": "event"
    },
    {
      "anonymous": false,
      "inputs": [
        {
          "indexed": true,
          "internalType": "address",
          "name": "user",
          "type": "address"
        },
        {
          "indexed": false,
          "internalType": "uint256",
          "name": "amount",
          "type": "uint256"
        }
      ],
      "name": "MultiBuy",
      "type": "event"
    },
    {
      "anonymous": false,
      "inputs": [
        {
          "indexed": true,
          "internalType": "address",
          "name": "user",
          "type": "address"
        },
        {
          "indexed": false,
          "internalType": "uint256",
          "name": "amount",
          "type": "uint256"
        }
      ],
      "name": "MultiClaim",
      "type": "event"
    },
    {
      "anonymous": false,
      "inputs": [
        {
          "indexed": true,
          "internalType": "address",
          "name": "previousOwner",
          "type": "address"
        },
        {
          "indexed": true,
          "internalType": "address",
          "name": "newOwner",
          "type": "address"
        }
      ],
      "name": "OwnershipTransferred",
      "type": "event"
    },
    {
      "anonymous": false,
      "inputs": [
        {
          "indexed": true,
          "internalType": "uint256",
          "name": "issueIndex",
          "type": "uint256"
        }
      ],
      "name": "Reset",
      "type": "event"
    },
    {
      "inputs": [],
      "name": "ODT",
      "outputs": [
        {
          "internalType": "contract IERC20",
          "name": "",
          "type": "address"
        }
      ],
      "stateMutability": "view",
      "type": "function"
    },
    {
      "inputs": [
        {
          "internalType": "uint256",
          "name": "",
          "type": "uint256"
        }
      ],
      "name": "accumulation",
      "outputs": [
        {
          "internalType": "bool",
          "name": "",
          "type": "bool"
        }
      ],
      "stateMutability": "view",
      "type": "function"
    },
    {
      "inputs": [],
      "name": "adminAddress",
      "outputs": [
        {
          "internalType": "address",
          "name": "",
          "type": "address"
        }
      ],
      "stateMutability": "view",
      "type": "function"
    },
    {
      "inputs": [
        {
          "internalType": "uint256",
          "name": "_amount",
          "type": "uint256"
        }
      ],
      "name": "adminWithdraw",
      "outputs": [],
      "stateMutability": "nonpayable",
      "type": "function"
    },
    {
      "inputs": [
        {
          "internalType": "uint256",
          "name": "",
          "type": "uint256"
        }
      ],
      "name": "allocation",
      "outputs": [
        {
          "internalType": "uint8",
          "name": "",
          "type": "uint8"
        }
      ],
      "stateMutability": "view",
      "type": "function"
    },
    {
      "inputs": [],
      "name": "burnAddress",
      "outputs": [
        {
          "internalType": "address",
          "name": "",
          "type": "address"
        }
      ],
      "stateMutability": "view",
      "type": "function"
    },
    {
      "inputs": [],
      "name": "burnProportion",
      "outputs": [
        {
          "internalType": "uint256",
          "name": "",
          "type": "uint256"
        }
      ],
      "stateMutability": "view",
      "type": "function"
    },
    {
      "inputs": [
        {
          "internalType": "uint256",
          "name": "_price",
          "type": "uint256"
        },
        {
          "internalType": "uint8[4]",
          "name": "_numbers",
          "type": "uint8[4]"
        }
      ],
      "name": "buy",
      "outputs": [],
      "stateMutability": "nonpayable",
      "type": "function"
    },
    {
      "inputs": [
        {
          "internalType": "uint256",
          "name": "_claimFee",
          "type": "uint256"
        }
      ],
      "name": "changeClaimFee",
      "outputs": [],
      "stateMutability": "nonpayable",
      "type": "function"
    },
    {
      "inputs": [],
      "name": "claimFee",
      "outputs": [
        {
          "internalType": "uint256",
          "name": "",
          "type": "uint256"
        }
      ],
      "stateMutability": "view",
      "type": "function"
    },
    {
      "inputs": [
        {
          "internalType": "uint256",
          "name": "_tokenId",
          "type": "uint256"
        }
      ],
      "name": "claimReward",
      "outputs": [],
      "stateMutability": "payable",
      "type": "function"
    },
    {
      "inputs": [],
      "name": "currentIssueIndexStartTime",
      "outputs": [
        {
          "internalType": "uint256",
          "name": "",
          "type": "uint256"
        }
      ],
      "stateMutability": "view",
      "type": "function"
    },
    {
      "inputs": [],
      "name": "drawed",
      "outputs": [
        {
          "internalType": "bool",
          "name": "",
          "type": "bool"
        }
      ],
      "stateMutability": "view",
      "type": "function"
    },
    {
      "inputs": [
        {
          "internalType": "uint256",
          "name": "_externalRandomNumber",
          "type": "uint256"
        }
      ],
      "name": "drawing",
      "outputs": [],
      "stateMutability": "nonpayable",
      "type": "function"
    },
    {
      "inputs": [],
      "name": "drawingPhase",
      "outputs": [
        {
          "internalType": "bool",
          "name": "",
          "type": "bool"
        }
      ],
      "stateMutability": "view",
      "type": "function"
    },
    {
      "inputs": [
        {
          "internalType": "uint256",
          "name": "_price",
          "type": "uint256"
        }
      ],
      "name": "emptyBuy",
      "outputs": [],
      "stateMutability": "nonpayable",
      "type": "function"
    },
    {
      "inputs": [],
      "name": "enterDrawingPhase",
      "outputs": [],
      "stateMutability": "nonpayable",
      "type": "function"
    },
    {
      "inputs": [
        {
          "internalType": "uint8[4]",
          "name": "number",
          "type": "uint8[4]"
        }
      ],
      "name": "generateNumberIndexKey",
      "outputs": [
        {
          "internalType": "uint64[11]",
          "name": "",
          "type": "uint64[11]"
        }
      ],
      "stateMutability": "pure",
      "type": "function"
    },
    {
      "inputs": [
        {
          "internalType": "uint256",
          "name": "_issueIndex",
          "type": "uint256"
        },
        {
          "internalType": "uint256",
          "name": "_matchingNumber",
          "type": "uint256"
        }
      ],
      "name": "getMatchingRewardAmount",
      "outputs": [
        {
          "internalType": "uint256",
          "name": "",
          "type": "uint256"
        }
      ],
      "stateMutability": "view",
      "type": "function"
    },
    {
      "inputs": [
        {
          "internalType": "uint256",
          "name": "_tokenId",
          "type": "uint256"
        }
      ],
      "name": "getRewardView",
      "outputs": [
        {
          "internalType": "uint256",
          "name": "",
          "type": "uint256"
        }
      ],
      "stateMutability": "view",
      "type": "function"
    },
    {
      "inputs": [
        {
          "internalType": "address",
          "name": "someone",
          "type": "address"
        },
        {
          "internalType": "uint256",
          "name": "issueIndex",
          "type": "uint256"
        }
      ],
      "name": "getTickets",
      "outputs": [
        {
          "internalType": "uint8[4][]",
          "name": "",
          "type": "uint8[4][]"
        }
      ],
      "stateMutability": "view",
      "type": "function"
    },
    {
      "inputs": [
        {
          "internalType": "uint256",
          "name": "_issueIndex",
          "type": "uint256"
        }
      ],
      "name": "getTotalRewards",
      "outputs": [
        {
          "internalType": "uint256",
          "name": "",
          "type": "uint256"
        }
      ],
      "stateMutability": "view",
      "type": "function"
    },
    {
      "inputs": [
        {
          "internalType": "uint256",
          "name": "",
          "type": "uint256"
        },
        {
          "internalType": "uint256",
          "name": "",
          "type": "uint256"
        }
      ],
      "name": "historyAmount",
      "outputs": [
        {
          "internalType": "uint256",
          "name": "",
          "type": "uint256"
        }
      ],
      "stateMutability": "view",
      "type": "function"
    },
    {
      "inputs": [
        {
          "internalType": "uint256",
          "name": "",
          "type": "uint256"
        },
        {
          "internalType": "uint256",
          "name": "",
          "type": "uint256"
        }
      ],
      "name": "historyNumbers",
      "outputs": [
        {
          "internalType": "uint8",
          "name": "",
          "type": "uint8"
        }
      ],
      "stateMutability": "view",
      "type": "function"
    },
    {
      "inputs": [],
      "name": "issueIndex",
      "outputs": [
        {
          "internalType": "uint256",
          "name": "",
          "type": "uint256"
        }
      ],
      "stateMutability": "view",
      "type": "function"
    },
    {
      "inputs": [],
      "name": "lastTimestamp",
      "outputs": [
        {
          "internalType": "uint256",
          "name": "",
          "type": "uint256"
        }
      ],
      "stateMutability": "view",
      "type": "function"
    },
    {
      "inputs": [
        {
          "internalType": "uint256",
          "name": "",
          "type": "uint256"
        },
        {
          "internalType": "uint256",
          "name": "",
          "type": "uint256"
        }
      ],
      "name": "lotteryInfo",
      "outputs": [
        {
          "internalType": "uint256",
          "name": "",
          "type": "uint256"
        }
      ],
      "stateMutability": "view",
      "type": "function"
    },
    {
      "inputs": [],
      "name": "lotteryNFT",
      "outputs": [
        {
          "internalType": "contract LotteryNFT",
          "name": "",
          "type": "address"
        }
      ],
      "stateMutability": "view",
      "type": "function"
    },
    {
      "inputs": [],
      "name": "maxNumber",
      "outputs": [
        {
          "internalType": "uint8",
          "name": "",
          "type": "uint8"
        }
      ],
      "stateMutability": "view",
      "type": "function"
    },
    {
      "inputs": [
        {
          "internalType": "uint256",
          "name": "_price",
          "type": "uint256"
        },
        {
          "internalType": "uint8[4][]",
          "name": "_numbers",
          "type": "uint8[4][]"
        }
      ],
      "name": "multiBuy",
      "outputs": [],
      "stateMutability": "nonpayable",
      "type": "function"
    },
    {
      "inputs": [
        {
          "internalType": "uint256[]",
          "name": "_tickets",
          "type": "uint256[]"
        }
      ],
      "name": "multiClaim",
      "outputs": [],
      "stateMutability": "payable",
      "type": "function"
    },
    {
      "inputs": [
        {
          "internalType": "uint256",
          "name": "_externalRandomNumber",
          "type": "uint256"
        }
      ],
      "name": "oneClickDraw",
      "outputs": [],
      "stateMutability": "nonpayable",
      "type": "function"
    },
    {
      "inputs": [],
      "name": "owner",
      "outputs": [
        {
          "internalType": "address",
          "name": "",
          "type": "address"
        }
      ],
      "stateMutability": "view",
      "type": "function"
    },
    {
      "inputs": [],
      "name": "renounceOwnership",
      "outputs": [],
      "stateMutability": "nonpayable",
      "type": "function"
    },
    {
      "inputs": [],
      "name": "reset",
      "outputs": [],
      "stateMutability": "nonpayable",
      "type": "function"
    },
    {
      "inputs": [
        {
          "internalType": "bool",
          "name": "_accumulation1",
          "type": "bool"
        },
        {
          "internalType": "bool",
          "name": "_accumulation2",
          "type": "bool"
        },
        {
          "internalType": "bool",
          "name": "_accumulation3",
          "type": "bool"
        },
        {
          "internalType": "bool",
          "name": "_accumulation4",
          "type": "bool"
        }
      ],
      "name": "setAccumulation",
      "outputs": [],
      "stateMutability": "nonpayable",
      "type": "function"
    },
    {
      "inputs": [
        {
          "internalType": "address",
          "name": "_adminAddress",
          "type": "address"
        }
      ],
      "name": "setAdmin",
      "outputs": [],
      "stateMutability": "nonpayable",
      "type": "function"
    },
    {
      "inputs": [
        {
          "internalType": "uint8",
          "name": "_allocation1",
          "type": "uint8"
        },
        {
          "internalType": "uint8",
          "name": "_allocation2",
          "type": "uint8"
        },
        {
          "internalType": "uint8",
          "name": "_allocation3",
          "type": "uint8"
        },
        {
          "internalType": "uint8",
          "name": "_allocation4",
          "type": "uint8"
        }
      ],
      "name": "setAllocation",
      "outputs": [],
      "stateMutability": "nonpayable",
      "type": "function"
    },
    {
      "inputs": [
        {
          "internalType": "address",
          "name": "_burnAddress",
          "type": "address"
        },
        {
          "internalType": "uint256",
          "name": "_burnProportion",
          "type": "uint256"
        }
      ],
      "name": "setBurnAddressAndProportion",
      "outputs": [],
      "stateMutability": "nonpayable",
      "type": "function"
    },
    {
      "inputs": [
        {
          "internalType": "uint8",
          "name": "_maxNumber",
          "type": "uint8"
        }
      ],
      "name": "setMaxNumber",
      "outputs": [],
      "stateMutability": "nonpayable",
      "type": "function"
    },
    {
      "inputs": [
        {
          "internalType": "uint256",
          "name": "_price",
          "type": "uint256"
        }
      ],
      "name": "setTicketPrice",
      "outputs": [],
      "stateMutability": "nonpayable",
      "type": "function"
    },
    {
      "inputs": [],
      "name": "ticketPrice",
      "outputs": [
        {
          "internalType": "uint256",
          "name": "",
          "type": "uint256"
        }
      ],
      "stateMutability": "view",
      "type": "function"
    },
    {
      "inputs": [],
      "name": "totalAddresses",
      "outputs": [
        {
          "internalType": "uint256",
          "name": "",
          "type": "uint256"
        }
      ],
      "stateMutability": "view",
      "type": "function"
    },
    {
      "inputs": [],
      "name": "totalAmount",
      "outputs": [
        {
          "internalType": "uint256",
          "name": "",
          "type": "uint256"
        }
      ],
      "stateMutability": "view",
      "type": "function"
    },
    {
      "inputs": [],
      "name": "totalBurn",
      "outputs": [
        {
          "internalType": "uint256",
          "name": "",
          "type": "uint256"
        }
      ],
      "stateMutability": "view",
      "type": "function"
    },
    {
      "inputs": [
        {
          "internalType": "address",
          "name": "newOwner",
          "type": "address"
        }
      ],
      "name": "transferOwnership",
      "outputs": [],
      "stateMutability": "nonpayable",
      "type": "function"
    },
    {
      "inputs": [
        {
          "internalType": "uint256",
          "name": "",
          "type": "uint256"
        },
        {
          "internalType": "uint64",
          "name": "",
          "type": "uint64"
        }
      ],
      "name": "userBuyAmountSum",
      "outputs": [
        {
          "internalType": "uint256",
          "name": "",
          "type": "uint256"
        }
      ],
      "stateMutability": "view",
      "type": "function"
    },
    {
      "inputs": [
        {
          "internalType": "address",
          "name": "",
          "type": "address"
        },
        {
          "internalType": "uint256",
          "name": "",
          "type": "uint256"
        }
      ],
      "name": "userInfo",
      "outputs": [
        {
          "internalType": "uint256",
          "name": "",
          "type": "uint256"
        }
      ],
      "stateMutability": "view",
      "type": "function"
    },
    {
      "inputs": [
        {
          "internalType": "address",
          "name": "",
          "type": "address"
        },
        {
          "internalType": "uint256",
          "name": "",
          "type": "uint256"
        },
        {
          "internalType": "uint256",
          "name": "",
          "type": "uint256"
        }
      ],
      "name": "userInfoByIssueIndex",
      "outputs": [
        {
          "internalType": "uint256",
          "name": "",
          "type": "uint256"
        }
      ],
      "stateMutability": "view",
      "type": "function"
    },
    {
      "inputs": [
        {
          "internalType": "uint256",
          "name": "",
          "type": "uint256"
        }
      ],
      "name": "winningNumbers",
      "outputs": [
        {
          "internalType": "uint8",
          "name": "",
          "type": "uint8"
        }
      ],
      "stateMutability": "view",
      "type": "function"
    }
  ],
  "bytecode": "0x6000600f8190556010819055601181905560138190556016819055610100604052608081815260a082905260c082905260e09190915262000045906018906004620001d3565b503480156200005357600080fd5b5060405162003f1338038062003f138339810160408190526200007691620002de565b600380546001600160a01b03199081166001600160a01b038a81169190911790925560048054821689841617815560068890556005805460ff60a01b1916600160a01b60ff8a160217909216928516929092179055426012556040805160808101825260328152601460208201819052600a928201929092526060810191909152620001069160019190620001d3565b506040805160808101825260018082526020820181905291810182905260608101919091526200013b9060029060046200026d565b50620001478362000188565b42601655601780546001600160a01b0319166001600160a01b03929092169190911790555050601e6007555050662386f26fc1000060085550620003999050565b600080546001600160a01b0319166001600160a01b03831690811782556040519091907f8be0079c531659141344cd1fd0a4f28419497f9722a3daafe3b4186f6b6457e0908290a350565b6001830191839082156200025b5791602002820160005b838211156200022a57835183826101000a81548160ff021916908360ff1602179055509260200192600101602081600001049283019260010302620001ea565b8015620002595782816101000a81549060ff02191690556001016020816000010492830192600103026200022a565b505b5062000269929150620002c3565b5090565b6001830191839082156200025b5791602002820160005b838211156200022a57835183826101000a81548160ff021916908315150217905550926020019260010160208160000104928301926001030262000284565b5b808211156200026957805460ff19168155600101620002c4565b600080600080600080600060e0888a031215620002f9578283fd5b8751620003068162000380565b6020890151909750620003198162000380565b604089015160608a0151919750955060ff8116811462000337578384fd5b60808901519094506200034a8162000380565b60a08901519093506200035d8162000380565b60c0890151909250620003708162000380565b8091505092959891949750929550565b6001600160a01b03811681146200039657600080fd5b50565b613b6a80620003a96000396000f3fe6080604052600436106102c95760003560e01c8063715018a611610175578063a42206c9116100dc578063d411b0fa11610095578063e13454161161006f578063e134541614610812578063e8adfbc714610827578063f2fde38b1461083c578063fc6f94681461085c576102c9565b8063d411b0fa146107bd578063d826f88f146107dd578063d917ab27146107f2576102c9565b8063a42206c914610715578063ae169a5014610735578063c39f49c014610748578063cebe62ed14610768578063cfad527714610788578063d1f7dbcf1461079d576102c9565b8063850bad941161012e578063850bad941461065e57806385dcdf1b1461067e57806386a6f024146106ab5780638da5cb5b146106cb57806399d32fc4146106e0578063a0a215c6146106f5576102c9565b8063715018a61461059c57806371792ed9146105b157806377a943c8146105d15780637c5b4a37146105f15780637f6ba93f1461061157806383dd0ee41461063e576102c9565b80633c9f861d1161023457806359bcbd68116101ed5780636575243f116101c75780636575243f146105325780636a28f82814610552578063704b6c021461056757806370d5ae0514610587576102c9565b806359bcbd68146104db57806360c8edac146104fb5780636349bc9a1461051d576102c9565b80633c9f861d1461043c578063438209f5146104515780634e45f095146104735780634ed73d2814610493578063552164ee146104a6578063552fbcee146104c6576102c9565b80631ff68866116102865780631ff688661461038557806321ce919d1461039a5780632bdff851146103ba5780632f506b20146103da578063324a5562146103fa5780633a4f69991461041a576102c9565b806303e0cce2146102ce5780631209b1f61461030457806314c20d5714610319578063159816501461033b57806319d8ac611461035b5780631a39d8ef14610370575b600080fd5b3480156102da57600080fd5b506102ee6102e9366004612fea565b610871565b6040516102fb9190613a6c565b60405180910390f35b34801561031057600080fd5b506102ee6108ac565b34801561032557600080fd5b5061033961033436600461328b565b6108b2565b005b34801561034757600080fd5b506103396103563660046131b4565b610bee565b34801561036757600080fd5b506102ee610c1d565b34801561037c57600080fd5b506102ee610c23565b34801561039157600080fd5b50610339610c29565b3480156103a657600080fd5b506102ee6103b5366004612fbf565b610c87565b3480156103c657600080fd5b506103396103d53660046131e4565b610cb5565b3480156103e657600080fd5b506102ee6103f53660046132d8565b611046565b34801561040657600080fd5b50610339610415366004613312565b611063565b34801561042657600080fd5b5061042f6110ad565b6040516102fb9190613a83565b34801561044857600080fd5b506102ee6110bd565b34801561045d57600080fd5b506104666110c3565b6040516102fb919061352b565b34801561047f57600080fd5b5061042f61048e3660046131b4565b6110cc565b6103396104a136600461301e565b6110f3565b3480156104b257600080fd5b506102ee6104c13660046131b4565b6113b4565b3480156104d257600080fd5b506102ee611428565b3480156104e757600080fd5b5061042f6104f63660046132b7565b61142e565b34801561050757600080fd5b50610510611464565b6040516102fb91906133c0565b34801561052957600080fd5b506102ee611473565b34801561053e57600080fd5b506102ee61054d3660046132b7565b611479565b34801561055e57600080fd5b506102ee611492565b34801561057357600080fd5b50610339610582366004612f87565b611498565b34801561059357600080fd5b506105106114e4565b3480156105a857600080fd5b506103396114f3565b3480156105bd57600080fd5b506103396105cc3660046131b4565b611567565b3480156105dd57600080fd5b506103396105ec3660046131b4565b6115ad565b3480156105fd57600080fd5b5061033961060c3660046131b4565b6115dc565b34801561061d57600080fd5b5061063161062c366004612fbf565b611661565b6040516102fb9190613440565b34801561064a57600080fd5b5061033961065936600461332e565b6117fb565b34801561066a57600080fd5b5061042f6106793660046131b4565b61188e565b34801561068a57600080fd5b5061069e6106993660046130b2565b61189b565b6040516102fb91906134c6565b3480156106b757600080fd5b506103396106c6366004612fbf565b611a22565b3480156106d757600080fd5b50610510611a72565b3480156106ec57600080fd5b506102ee611a81565b34801561070157600080fd5b506103396107103660046131b4565b611a87565b34801561072157600080fd5b506103396107303660046131b4565b611b25565b6103396107433660046131b4565b611dab565b34801561075457600080fd5b506102ee6107633660046132b7565b611fec565b34801561077457600080fd5b50610339610783366004613159565b612005565b34801561079457600080fd5b506102ee612066565b3480156107a957600080fd5b506102ee6107b83660046132b7565b61206c565b3480156107c957600080fd5b506102ee6107d83660046131b4565b61209d565b3480156107e957600080fd5b50610339612395565b3480156107fe57600080fd5b5061046661080d3660046131b4565b6125a5565b34801561081e57600080fd5b506104666125b2565b34801561083357600080fd5b506105106125bd565b34801561084857600080fd5b50610339610857366004612f87565b6125cc565b34801561086857600080fd5b50610510612677565b600e602052826000526040600020602052816000526040600020818154811061089657fe5b9060005260206000200160009250925050505481565b60065481565b6108ba6125b2565b156108e05760405162461bcd60e51b81526004016108d7906138f5565b60405180910390fd5b60155460ff16156109035760405162461bcd60e51b81526004016108d790613846565b60065482146109245760405162461bcd60e51b81526004016108d79061387d565b60005b600481101561097757600554600160a01b900460ff1682826004811061094957fe5b602002015160ff16111561096f5760405162461bcd60e51b81526004016108d7906135de565b600101610927565b5060048054600f54604051620dce4760ea1b81526000936001600160a01b03909316926337391c00926109b292339288928a929091016133d4565b602060405180830381600087803b1580156109cc57600080fd5b505af11580156109e0573d6000803e3d6000fd5b505050506040513d601f19601f82011682018060405250810190610a0491906131cc565b600f546000908152600a60209081526040808320805460018101825590845282842001849055338352600d909152902054909150610a46576010805460010190555b336000818152600d6020908152604080832080546001818101835591855283852001869055938352600e8252808320600f54845282528220805493840181558252902001819055601154610a9a9084612686565b60115542601255610aa9612d59565b610ab28361189b565b905060005b600b811015610b6057600f546000908152600c60205260408120610b18918791908585600b8110610ae457fe5b60200201516001600160401b03166001600160401b031681526020019081526020016000205461268690919063ffffffff16565b600f546000908152600c60205260408120908484600b8110610b3657fe5b602090810291909101516001600160401b0316825281019190915260400160002055600101610ab7565b50600354610b79906001600160a01b03163330876126b2565b6000610b9b6064610b956007548861271090919063ffffffff16565b9061274a565b9050610ba68161277c565b336001600160a01b03167fe3d4187f6ca4248660cc0ac8b8056515bac4a8132be2eca31d6d0cc170722a7e84604051610bdf9190613a6c565b60405180910390a25050505050565b6005546001600160a01b03163314610c185760405162461bcd60e51b81526004016108d790613961565b600655565b60125481565b60115481565b6005546001600160a01b03163314610c535760405162461bcd60e51b81526004016108d790613961565b610c5b6125b2565b15610c785760405162461bcd60e51b81526004016108d790613a4c565b6015805460ff19166001179055565b600d6020528160005260406000208181548110610ca057fe5b90600052602060002001600091509150505481565b610cbd6125b2565b15610cda5760405162461bcd60e51b81526004016108d7906138f5565b60155460ff1615610cfd5760405162461bcd60e51b81526004016108d790613846565b6006548214610d1e5760405162461bcd60e51b81526004016108d79061387d565b6000805b8251811015610fbf5760005b6004811015610dc957600560149054906101000a900460ff1660ff16848381518110610d5657fe5b60200260200101518260048110610d6957fe5b602002015160ff1611158015610da557506000848381518110610d8857fe5b60200260200101518260048110610d9b57fe5b602002015160ff16115b610dc15760405162461bcd60e51b81526004016108d7906135de565b600101610d2e565b5060045483516000916001600160a01b0316906337391c00903390879086908110610df057fe5b602002602001015188600f546040518563ffffffff1660e01b8152600401610e1b94939291906133d4565b602060405180830381600087803b158015610e3557600080fd5b505af1158015610e49573d6000803e3d6000fd5b505050506040513d601f19601f82011682018060405250810190610e6d91906131cc565b600f546000908152600a60209081526040808320805460018101825590845282842001849055338352600d909152902054909150610eaf576010805460010190555b336000818152600d6020908152604080832080546001818101835591855283852001869055938352600e8252808320600f54845282528220805493840181558252902001819055601154610f039086612686565b60115542601255610f148386612686565b9250610f1e612d59565b610f3a858481518110610f2d57fe5b602002602001015161189b565b905060005b600b811015610fb457600f546000908152600c60205260408120610f6c918991908585600b8110610ae457fe5b600f546000908152600c60205260408120908484600b8110610f8a57fe5b602090810291909101516001600160401b0316825281019190915260400160002055600101610f3f565b505050600101610d22565b50600354610fd8906001600160a01b03163330846126b2565b6000610ff46064610b956007548561271090919063ffffffff16565b9050610fff8161277c565b336001600160a01b03167f96c35ad1cc1743f26cb87980c38042de8082358ec6d171a7986d6e11dddfe857836040516110389190613a6c565b60405180910390a250505050565b600c60209081526000928352604080842090915290825290205481565b6005546001600160a01b0316331461108d5760405162461bcd60e51b81526004016108d790613961565b6005805460ff909216600160a01b0260ff60a01b19909216919091179055565b600554600160a01b900460ff1681565b60135481565b60155460ff1681565b601481600481106110d957fe5b60209182820401919006915054906101000a900460ff1681565b80516000906005811115611105575060055b60085481023410156111295760405162461bcd60e51b81526004016108d7906139de565b60005b83518110156112ec5760045484516001600160a01b0390911690636352211e9086908490811061115857fe5b60200260200101516040518263ffffffff1660e01b815260040161117c9190613a6c565b60206040518083038186803b15801561119457600080fd5b505afa1580156111a8573d6000803e3d6000fd5b505050506040513d601f19601f820116820180604052508101906111cc9190612fa3565b6001600160a01b0316336001600160a01b0316146111fc5760405162461bcd60e51b81526004016108d79061378f565b60045484516001600160a01b03909116906336dbd2f99086908490811061121f57fe5b60200260200101516040518263ffffffff1660e01b81526004016112439190613a6c565b60206040518083038186803b15801561125b57600080fd5b505afa15801561126f573d6000803e3d6000fd5b505050506040513d601f19601f82011682018060405250810190611293919061313d565b156112b05760405162461bcd60e51b81526004016108d790613825565b60006112ce8583815181106112c157fe5b602002602001015161209d565b905080156112e3576112e08185612686565b93505b5060010161112c565b5060048054604051637431035560e01b81526001600160a01b039091169163743103559161131c9187910161348e565b600060405180830381600087803b15801561133657600080fd5b505af115801561134a573d6000803e3d6000fd5b50505050600082111561136e5760035461136e906001600160a01b0316338461279d565b336001600160a01b03167f6606374655494f5c0e2d6f392656e9777afd9ac5f61527d1bcad50b7e918a03e836040516113a79190613a6c565b60405180910390a2505050565b6000600f548211156113d85760405162461bcd60e51b81526004016108d79061360b565b6113e06125b2565b1580156113ee5750600f5482145b156113fc5750601154611423565b6000828152600b60205260408120805490919061141557fe5b906000526020600020015490505b919050565b60165481565b6009602052816000526040600020816004811061144757fe5b602081049091015460ff601f9092166101000a9004169150829050565b6003546001600160a01b031681565b60075481565b600a6020528160005260406000208181548110610ca057fe5b600f5481565b6000546001600160a01b031633146114c25760405162461bcd60e51b81526004016108d79061392c565b600580546001600160a01b0319166001600160a01b0392909216919091179055565b6017546001600160a01b031681565b6000546001600160a01b0316331461151d5760405162461bcd60e51b81526004016108d79061392c565b600080546040516001600160a01b03909116907f8be0079c531659141344cd1fd0a4f28419497f9722a3daafe3b4186f6b6457e0908390a3600080546001600160a01b0319169055565b6005546001600160a01b031633146115915760405162461bcd60e51b81526004016108d790613961565b611599610c29565b6115a281611b25565b6115aa612395565b50565b6005546001600160a01b031633146115d75760405162461bcd60e51b81526004016108d790613961565b600855565b6005546001600160a01b031633146116065760405162461bcd60e51b81526004016108d790613961565b60035461161d906001600160a01b0316338361279d565b336001600160a01b03167f050d1c64cc22ce461b9bc14f6b73852566da02b03c155242bc63169d1fec42aa826040516116569190613a6c565b60405180910390a250565b6001600160a01b0382166000908152600e6020908152604080832084845290915290205460609081906001600160401b038111801561169f57600080fd5b506040519080825280602002602001820160405280156116d957816020015b6116c6612d78565b8152602001906001900390816116be5790505b50905060005b6001600160a01b0385166000908152600e602090815260408083208784529091529020548110156117f1576001600160a01b0385166000908152600e60209081526040808320878452909152812080548390811061173957fe5b9060005260206000200154905061174e612d78565b60048054604051635f8e26a760e01b81526001600160a01b0390911691635f8e26a79161177d91869101613a6c565b60806040518083038186803b15801561179557600080fd5b505afa1580156117a9573d6000803e3d6000fd5b505050506040513d601f19601f820116820180604052508101906117cd91906130cd565b9050808484815181106117dc57fe5b602090810291909101015250506001016116df565b5090505b92915050565b6005546001600160a01b031633146118255760405162461bcd60e51b81526004016108d790613961565b8082848601010160ff1660641461184e5760405162461bcd60e51b81526004016108d790613642565b6040805160808101825260ff80871682528581166020830152848116928201929092529082166060820152611887906001906004612d96565b5050505050565b600181600481106110d957fe5b6118a3612d59565b6118ab612d78565b825160ff9081168252602080850151821690830152604080850151821690830152606080850151909116908201526118e1612d59565b6060828101805160408086018051602080890180518a516201000094850264010000000092830266010000000000009092029190910101909601650100020003009081016001600160401b039081168b52855183518d51908702908a02010163010002009081018216948c0194909452885183518d51908702908a02010163010003009081018216978c0197909752885186518d51908702908a020101630200030090810182169a8c019a909a5288518651845190870299029890980190970101861660808a015280518a51840201610100908101871660a08b015284518b5185020161020001871660c08b015287519a518402909a0161030001861660e08a015283518151840201909101851698880198909852845197518102909701909101821661012086015291519151909402010190911661014082015292915050565b6005546001600160a01b03163314611a4c5760405162461bcd60e51b81526004016108d790613961565b601780546001600160a01b0319166001600160a01b039390931692909217909155600755565b6000546001600160a01b031690565b60085481565b611a8f6125b2565b15611aac5760405162461bcd60e51b81526004016108d7906138f5565b60155460ff1615611acf5760405162461bcd60e51b81526004016108d790613846565b6040805160808101918290526115aa91839190601890600490826000855b825461010083900a900460ff16815260206001928301818104948501949093039092029101808411611aed57905050505050506127c1565b6005546001600160a01b03163314611b4f5760405162461bcd60e51b81526004016108d790613961565b611b576125b2565b15611b745760405162461bcd60e51b81526004016108d79061359a565b60155460ff16611b965760405162461bcd60e51b81526004016108d7906137ee565b6005546000908190600160a01b900460ff16436000190140825b600a811015611bcd57611bc4600f546113b4565b50600101611bb0565b5060005a9050816010548288604051602001611bec949392919061354c565b60408051601f198184030181529082905280516020918201206014805460ff191687830660010160ff8116919091179091556011549198509650611c3692859285918b910161354c565b60408051601f198184030181529082905280516020918201206014805460ff8884066001019081166101000261ff0019909216919091179091556012549198509650611c8892859285918b910161354c565b60408051808303601f190181529082905280516020918201206014805460ff600189850601908116620100000262ff000019909216919091179091559097509550611cd991849184918a9101613536565b60408051808303601f1901815291815281516020928301206014805460ff60018985060190811663010000000263ff00000019909216919091178255600f546000908152600990955292909320909750909550611d37916004612e29565b50611d40612933565b600f546000908152600b60205260409020611d5c916004612e5c565b506015805460ff19169055600f546040517fa13e935b188993737b3009d62bd916dcbe9e82d8236d75981eeadf26a1460d3d90611d9b906014906134f8565b60405180910390a2505050505050565b600480546040516331a9108f60e11b81526001600160a01b0390911691636352211e91611dda91859101613a6c565b60206040518083038186803b158015611df257600080fd5b505afa158015611e06573d6000803e3d6000fd5b505050506040513d601f19601f82011682018060405250810190611e2a9190612fa3565b6001600160a01b0316336001600160a01b031614611e5a5760405162461bcd60e51b81526004016108d79061378f565b600480546040516336dbd2f960e01b81526001600160a01b03909116916336dbd2f991611e8991859101613a6c565b60206040518083038186803b158015611ea157600080fd5b505afa158015611eb5573d6000803e3d6000fd5b505050506040513d601f19601f82011682018060405250810190611ed9919061313d565b15611ef65760405162461bcd60e51b81526004016108d790613825565b600854341015611f185760405162461bcd60e51b81526004016108d7906139de565b6000611f238261209d565b60048054604051630ae169a560e41b81529293506001600160a01b03169163ae169a5091611f5391869101613a6c565b600060405180830381600087803b158015611f6d57600080fd5b505af1158015611f81573d6000803e3d6000fd5b505050506000811115611fa557600354611fa5906001600160a01b0316338361279d565b336001600160a01b03167f34fcbac0073d7c3d388e51312faf357774904998eeb8fca628b9e6f65ee1cbf78383604051611fe0929190613a75565b60405180910390a25050565b600b6020528160005260406000208181548110610ca057fe5b6005546001600160a01b0316331461202f5760405162461bcd60e51b81526004016108d790613961565b6040805160808101825285151581528415156020820152831515918101919091528115156060820152611887906002906004612ea3565b60105481565b6000828152600b602052604081208054600584900390811061208a57fe5b9060005260206000200154905092915050565b60048054604051631bf1e00f60e01b815260009283926001600160a01b031691631bf1e00f916120cf91879101613a6c565b60206040518083038186803b1580156120e757600080fd5b505afa1580156120fb573d6000803e3d6000fd5b505050506040513d601f19601f8201168201806040525081019061211f91906131cc565b9050612129612d78565b60048054604051635f8e26a760e01b81526001600160a01b0390911691635f8e26a79161215891889101613a6c565b60806040518083038186803b15801561217057600080fd5b505afa158015612184573d6000803e3d6000fd5b505050506040513d601f19601f820116820180604052508101906121a891906130cd565b90506121b2612d78565b600083815260096020526040808220815160808101928390529290916004918390855b825461010083900a900460ff168152602060019283018181049485019490930390920291018084116121d5579050505050505090508060006004811061221757fe5b602002015160ff1661223b5760405162461bcd60e51b81526004016108d7906135ba565b6000805b60048110156122855783816004811061225457fe5b602002015160ff1683826004811061226857fe5b602002015160ff16141561227d578160010191505b60010161223f565b506000600182111561237b5760048054604051637bd0606560e11b81526000926001600160a01b039092169163f7a0c0ca916122c3918c9101613a6c565b60206040518083038186803b1580156122db57600080fd5b505afa1580156122ef573d6000803e3d6000fd5b505050506040513d601f19601f8201168201806040525081019061231391906131cc565b905060006123546064610b956001876004036004811061232f57fe5b602081049091015460ff601f9092166101000a90041661234e8b6113b4565b90612710565b90506123768161234e6123678a8861206c565b610b958664e8d4a51000612710565b925050505b61238a8164e8d4a5100061274a565b979650505050505050565b6005546001600160a01b031633146123bf5760405162461bcd60e51b81526004016108d790613961565b6123c76125b2565b6123e35760405162461bcd60e51b81526004016108d7906139bd565b426012556000601081905560118190556014805463ffffffff191690556015805460ff19169055600f80546001810190915561241e906113b4565b905060005b60038110156124f15761243e6001600f54038260040361206c565b6124e95760006124756064610b956001856004811061245957fe5b6020810491909101548791601f166101000a900460ff16612710565b90506002826004811061248457fe5b602081049091015460ff601f9092166101000a900416156124de576040805160808101918290526018805460ff1682526124d9928492919060049082600160208601808411611aed57905050505050506127c1565b6124e7565b6124e78161277c565b505b600101612423565b5060015460009061251490606490610b959085906301000000900460ff16612710565b6002549091506301000000900460ff1615612568576040805160808101918290526018805460ff168252612563928492919060049082600160208601808411611aed57905050505050506127c1565b612571565b6125718161277c565b42601655600f546040517f01c3cbb0d62726ab09d163873ebf9aed99dd8dc08e57bc938f458132fd178cf690600090a25050565b600281600481106110d957fe5b60145460ff16151590565b6004546001600160a01b031681565b6000546001600160a01b031633146125f65760405162461bcd60e51b81526004016108d79061392c565b6001600160a01b03811661261c5760405162461bcd60e51b81526004016108d790613669565b600080546040516001600160a01b03808516939216917f8be0079c531659141344cd1fd0a4f28419497f9722a3daafe3b4186f6b6457e091a3600080546001600160a01b0319166001600160a01b0392909216919091179055565b6005546001600160a01b031681565b6000828201838110156126ab5760405162461bcd60e51b81526004016108d7906136af565b9392505050565b61270a846323b872dd60e01b8585856040516024016126d393929190613403565b60408051601f198184030181529190526020810180516001600160e01b03166001600160e01b031990931692909217909152612b96565b50505050565b60008261271f575060006117f5565b8282028284828161272c57fe5b04146126ab5760405162461bcd60e51b81526004016108d7906138b4565b600080821161276b5760405162461bcd60e51b81526004016108d7906137b7565b81838161277457fe5b049392505050565b60138054820190556017546003546115aa916001600160a01b039182169116835b6127bc8363a9059cbb60e01b84846040516024016126d3929190613427565b505050565b6127c96125b2565b156127e65760405162461bcd60e51b81526004016108d7906138f5565b60005b600481101561283957600554600160a01b900460ff1682826004811061280b57fe5b602002015160ff1611156128315760405162461bcd60e51b81526004016108d7906136e6565b6001016127e9565b5060048054600f54604051620dce4760ea1b81526000936001600160a01b03909316926337391c009261287492309288928a929091016133d4565b602060405180830381600087803b15801561288e57600080fd5b505af11580156128a2573d6000803e3d6000fd5b505050506040513d601f19601f820116820180604052508101906128c691906131cc565b600f546000908152600a60209081526040822080546001810182559083529120018190556011549091506128fa9084612686565b6011554260125560405130907fe3d4187f6ca4248660cc0ac8b8056515bac4a8132be2eca31d6d0cc170722a7e906113a7908490613a6c565b61293b612d78565b612943612d59565b60408051608081019182905261299691601490600490826000855b825461010083900a900460ff1681526020600192830181810494850194909303909202910180841161295e579050505050505061189b565b600f546000818152600c6020818152604080842086516001600160401b039081168652818452828620548787528585528885015190911686528184529185205495855292909152939450612a1d918560025b60200201516001600160401b03166001600160401b03168152602001908152602001600020548261268690919063ffffffff16565b600f546000908152600c60205260408120919250612a3e91908560036129e8565b600f546000908152600c60205260408120919250612a5f91908560046129e8565b90506000612a78612a71846004612710565b8390612c25565b600f546000818152600c6020818152604080842060a08b01516001600160401b03168552808352908420549484529190529293509091612aba918760066129e8565b600f546000908152600c60205260408120919250612adb91908760076129e8565b600f546000908152600c60205260408120919250612afc91908760086129e8565b600f546000908152600c60205260408120919250612b1d91908760096129e8565b600f546000908152600c60205260408120919250612b3e919087600a6129e8565b90506000612b6b612b50856003612710565b612b65612b5e886006612710565b8590612686565b90612c25565b6040805160808101825260115481526020810197909752860193909352505060608301525091505090565b6060612beb826040518060400160405280602081526020017f5361666545524332303a206c6f772d6c6576656c2063616c6c206661696c6564815250856001600160a01b0316612c4d9092919063ffffffff16565b8051909150156127bc5780806020019051810190612c09919061313d565b6127bc5760405162461bcd60e51b81526004016108d790613a02565b600082821115612c475760405162461bcd60e51b81526004016108d790613712565b50900390565b6060612c5c8484600085612c64565b949350505050565b606082471015612c865760405162461bcd60e51b81526004016108d790613749565b612c8f85612d1a565b612cab5760405162461bcd60e51b81526004016108d790613986565b60006060866001600160a01b03168587604051612cc891906133a4565b60006040518083038185875af1925050503d8060008114612d05576040519150601f19603f3d011682016040523d82523d6000602084013e612d0a565b606091505b509150915061238a828286612d20565b3b151590565b60608315612d2f5750816126ab565b825115612d3f5782518084602001fd5b8160405162461bcd60e51b81526004016108d79190613567565b604051806101600160405280600b906020820280368337509192915050565b60405180608001604052806004906020820280368337509192915050565b600183019183908215612e195791602002820160005b83821115612dea57835183826101000a81548160ff021916908360ff1602179055509260200192600101602081600001049283019260010302612dac565b8015612e175782816101000a81549060ff0219169055600101602081600001049283019260010302612dea565b505b50612e25929150612ef6565b5090565b600183019183908215612e195791601f016020900482015b82811115612e19578254825591600101919060010190612e41565b828054828255906000526020600020908101928215612e97579160200282015b82811115612e97578251825591602001919060010190612e7c565b50612e25929150612f0f565b600183019183908215612e195791602002820160005b83821115612dea57835183826101000a81548160ff0219169083151502179055509260200192600101602081600001049283019260010302612eb9565b5b80821115612e2557805460ff19168155600101612ef7565b5b80821115612e255760008155600101612f10565b600082601f830112612f34578081fd5b612f3e6080613a91565b9050808284608085011115612f5257600080fd5b60005b6004811015612f7e578135612f6981613b25565b83526020928301929190910190600101612f55565b50505092915050565b600060208284031215612f98578081fd5b81356126ab81613b02565b600060208284031215612fb4578081fd5b81516126ab81613b02565b60008060408385031215612fd1578081fd5b8235612fdc81613b02565b946020939093013593505050565b600080600060608486031215612ffe578081fd5b833561300981613b02565b95602085013595506040909401359392505050565b60006020808385031215613030578182fd5b82356001600160401b03811115613045578283fd5b8301601f81018513613055578283fd5b803561306861306382613ab7565b613a91565b8181528381019083850185840285018601891015613084578687fd5b8694505b838510156130a6578035835260019490940193918501918501613088565b50979650505050505050565b6000608082840312156130c3578081fd5b6126ab8383612f24565b6000608082840312156130de578081fd5b82601f8301126130ec578081fd5b6130f66080613a91565b808385608086011115613107578384fd5b835b600481101561313257815161311d81613b25565b84526020938401939190910190600101613109565b509095945050505050565b60006020828403121561314e578081fd5b81516126ab81613b17565b6000806000806080858703121561316e578081fd5b843561317981613b17565b9350602085013561318981613b17565b9250604085013561319981613b17565b915060608501356131a981613b17565b939692955090935050565b6000602082840312156131c5578081fd5b5035919050565b6000602082840312156131dd578081fd5b5051919050565b600080604083850312156131f6578182fd5b823591506020808401356001600160401b03811115613213578283fd5b8401601f81018613613223578283fd5b803561323161306382613ab7565b818152838101908385016080808502860187018b101561324f578788fd5b8795505b8486101561327b576132658b83612f24565b8452600195909501949286019290810190613253565b5096999098509650505050505050565b60008060a0838503121561329d578182fd5b823591506132ae8460208501612f24565b90509250929050565b600080604083850312156132c9578182fd5b50508035926020909101359150565b600080604083850312156132ea578182fd5b8235915060208301356001600160401b0381168114613307578182fd5b809150509250929050565b600060208284031215613323578081fd5b81356126ab81613b25565b60008060008060808587031215613343578182fd5b843561334e81613b25565b9350602085013561335e81613b25565b9250604085013561336e81613b25565b915060608501356131a981613b25565b8060005b600481101561270a57815160ff16845260209384019390910190600101613382565b600082516133b6818460208701613ad6565b9190910192915050565b6001600160a01b0391909116815260200190565b6001600160a01b038516815260e081016133f1602083018661337e565b60a082019390935260c0015292915050565b6001600160a01b039384168152919092166020820152604081019190915260600190565b6001600160a01b03929092168252602082015260400190565b6020808252825182820181905260009190848201906040850190845b818110156134825761346f83855161337e565b928401926080929092019160010161345c565b50909695505050505050565b6020808252825182820181905260009190848201906040850190845b81811015613482578351835292840192918401916001016134aa565b6101608101818360005b600b811015612f7e5781516001600160401b03168352602092830192909101906001016134d0565b905460ff8082168352600882901c81166020840152601082901c8116604084015260189190911c16606082015260800190565b901515815260200190565b9283526020830191909152604082015260600190565b93845260208401929092526040830152606082015260800190565b6000602082528251806020840152613586816040850160208701613ad6565b601f01601f19169190910160400192915050565b60208082526006908201526572657365743f60d01b604082015260600190565b6020808252600a90820152691b9bdd08191c985dd95960b21b604082015260600190565b602080825260139082015272657863656564206e756d6265722073636f706560681b604082015260600190565b60208082526019908201527f5f6973737565496e646578203c3d206973737565496e64657800000000000000604082015260600190565b6020808252600d908201526c06e6f7420657175616c2031303609c1b604082015260600190565b60208082526026908201527f4f776e61626c653a206e6577206f776e657220697320746865207a65726f206160408201526564647265737360d01b606082015260800190565b6020808252601b908201527f536166654d6174683a206164646974696f6e206f766572666c6f770000000000604082015260600190565b60208082526012908201527165786365656420746865206d6178696d756d60701b604082015260600190565b6020808252601e908201527f536166654d6174683a207375627472616374696f6e206f766572666c6f770000604082015260600190565b60208082526026908201527f416464726573733a20696e73756666696369656e742062616c616e636520666f6040820152651c8818d85b1b60d21b606082015260800190565b6020808252600e908201526d3737ba10333937b69037bbb732b960911b604082015260600190565b6020808252601a908201527f536166654d6174683a206469766973696f6e206279207a65726f000000000000604082015260600190565b60208082526019908201527f656e7465722064726177696e6720706861736520666972737400000000000000604082015260600190565b60208082526007908201526618db185a5b595960ca1b604082015260600190565b60208082526018908201527f64726177696e672c2063616e206e6f7420627579206e6f770000000000000000604082015260600190565b60208082526019908201527f7072696365206d7573742061626f7665206d696e507269636500000000000000604082015260600190565b60208082526021908201527f536166654d6174683a206d756c7469706c69636174696f6e206f766572666c6f6040820152607760f81b606082015260800190565b60208082526017908201527f6472617765642c2063616e206e6f7420627579206e6f77000000000000000000604082015260600190565b6020808252818101527f4f776e61626c653a2063616c6c6572206973206e6f7420746865206f776e6572604082015260600190565b6020808252600b908201526a61646d696e3a207775743f60a81b604082015260600190565b6020808252601d908201527f416464726573733a2063616c6c20746f206e6f6e2d636f6e7472616374000000604082015260600190565b6020808252600790820152666472617765643f60c81b604082015260600190565b6020808252600a9082015269636c61696d206665653f60b01b604082015260600190565b6020808252602a908201527f5361666545524332303a204552433230206f7065726174696f6e20646964206e6040820152691bdd081cdd58d8d9595960b21b606082015260800190565b602080825260069082015265191c985dd95960d21b604082015260600190565b90815260200190565b918252602082015260400190565b60ff91909116815260200190565b6040518181016001600160401b0381118282101715613aaf57600080fd5b604052919050565b60006001600160401b03821115613acc578081fd5b5060209081020190565b60005b83811015613af1578181015183820152602001613ad9565b8381111561270a5750506000910152565b6001600160a01b03811681146115aa57600080fd5b80151581146115aa57600080fd5b60ff811681146115aa57600080fdfea26469706673582212204d2161ba9a0b53fc37ba4f367649e1168348a93c78de97d82a6fa204ecceb78c64736f6c634300060c0033",
  "linkReferences": {},
  "deployedLinkReferences": {}
}