{
  "_format": "hh-sol-artifact-1",
  "contractName": "NEWWPresale",
  "sourceName": "contracts/neww/All.sol",
  "abi": [
    {
      "inputs": [
        {
          "internalType": "uint256",
          "name": "rate",
          "type": "uint256"
        },
        {
          "internalType": "contract IMintableERC20",
          "name": "token",
          "type": "address"
        },
        {
          "internalType": "address payable",
          "name": "project",
          "type": "address"
        },
        {
          "internalType": "uint256",
          "name": "startTime",
          "type": "uint256"
        },
        {
          "internalType": "address",
          "name": "router",
          "type": "address"
        }
      ],
      "stateMutability": "nonpayable",
      "type": "constructor"
    },
    {
      "anonymous": false,
      "inputs": [
        {
          "indexed": false,
          "internalType": "uint256",
          "name": "amount",
          "type": "uint256"
        }
      ],
      "name": "LiquidityRelease",
      "type": "event"
    },
    {
      "anonymous": false,
      "inputs": [
        {
          "indexed": true,
          "internalType": "address",
          "name": "previousOwner",
          "type": "address"
        },
        {
          "indexed": true,
          "internalType": "address",
          "name": "newOwner",
          "type": "address"
        }
      ],
      "name": "OwnershipTransferred",
      "type": "event"
    },
    {
      "anonymous": false,
      "inputs": [
        {
          "indexed": true,
          "internalType": "address",
          "name": "beneficiary",
          "type": "address"
        },
        {
          "indexed": false,
          "internalType": "uint256",
          "name": "tokenAmount",
          "type": "uint256"
        }
      ],
      "name": "PurchaseNEWW",
      "type": "event"
    },
    {
      "anonymous": false,
      "inputs": [
        {
          "indexed": true,
          "internalType": "address",
          "name": "beneficiary",
          "type": "address"
        },
        {
          "indexed": false,
          "internalType": "uint256",
          "name": "amount",
          "type": "uint256"
        }
      ],
      "name": "ReleaseNEWW",
      "type": "event"
    },
    {
      "anonymous": false,
      "inputs": [
        {
          "indexed": false,
          "internalType": "uint256",
          "name": "prevClosingTime",
          "type": "uint256"
        },
        {
          "indexed": false,
          "internalType": "uint256",
          "name": "newClosingTime",
          "type": "uint256"
        }
      ],
      "name": "TimedCrowdsaleExtended",
      "type": "event"
    },
    {
      "anonymous": false,
      "inputs": [
        {
          "indexed": true,
          "internalType": "address",
          "name": "purchaser",
          "type": "address"
        },
        {
          "indexed": true,
          "internalType": "address",
          "name": "beneficiary",
          "type": "address"
        },
        {
          "indexed": false,
          "internalType": "uint256",
          "name": "value",
          "type": "uint256"
        },
        {
          "indexed": false,
          "internalType": "uint256",
          "name": "amount",
          "type": "uint256"
        }
      ],
      "name": "TokensPurchased",
      "type": "event"
    },
    {
      "anonymous": false,
      "inputs": [
        {
          "indexed": false,
          "internalType": "uint256",
          "name": "block",
          "type": "uint256"
        },
        {
          "indexed": false,
          "internalType": "address",
          "name": "self",
          "type": "address"
        }
      ],
      "name": "UnlockRelease",
      "type": "event"
    },
    {
      "inputs": [],
      "name": "afterClose",
      "outputs": [],
      "stateMutability": "nonpayable",
      "type": "function"
    },
    {
      "inputs": [],
      "name": "board",
      "outputs": [],
      "stateMutability": "nonpayable",
      "type": "function"
    },
    {
      "inputs": [
        {
          "internalType": "address",
          "name": "beneficiary",
          "type": "address"
        }
      ],
      "name": "buyTokens",
      "outputs": [],
      "stateMutability": "payable",
      "type": "function"
    },
    {
      "inputs": [],
      "name": "canRelease",
      "outputs": [
        {
          "internalType": "bool",
          "name": "",
          "type": "bool"
        }
      ],
      "stateMutability": "view",
      "type": "function"
    },
    {
      "inputs": [],
      "name": "closingTime",
      "outputs": [
        {
          "internalType": "uint256",
          "name": "",
          "type": "uint256"
        }
      ],
      "stateMutability": "view",
      "type": "function"
    },
    {
      "inputs": [],
      "name": "farmManager",
      "outputs": [
        {
          "internalType": "address",
          "name": "",
          "type": "address"
        }
      ],
      "stateMutability": "view",
      "type": "function"
    },
    {
      "inputs": [],
      "name": "hasClosed",
      "outputs": [
        {
          "internalType": "bool",
          "name": "",
          "type": "bool"
        }
      ],
      "stateMutability": "view",
      "type": "function"
    },
    {
      "inputs": [],
      "name": "isOpen",
      "outputs": [
        {
          "internalType": "bool",
          "name": "",
          "type": "bool"
        }
      ],
      "stateMutability": "view",
      "type": "function"
    },
    {
      "inputs": [],
      "name": "lastReleaseBlock",
      "outputs": [
        {
          "internalType": "uint256",
          "name": "",
          "type": "uint256"
        }
      ],
      "stateMutability": "view",
      "type": "function"
    },
    {
      "inputs": [
        {
          "internalType": "address payable",
          "name": "receiver",
          "type": "address"
        }
      ],
      "name": "migrate",
      "outputs": [],
      "stateMutability": "nonpayable",
      "type": "function"
    },
    {
      "inputs": [],
      "name": "openingTime",
      "outputs": [
        {
          "internalType": "uint256",
          "name": "",
          "type": "uint256"
        }
      ],
      "stateMutability": "view",
      "type": "function"
    },
    {
      "inputs": [],
      "name": "owner",
      "outputs": [
        {
          "internalType": "address",
          "name": "",
          "type": "address"
        }
      ],
      "stateMutability": "view",
      "type": "function"
    },
    {
      "inputs": [
        {
          "internalType": "address",
          "name": "factory",
          "type": "address"
        },
        {
          "internalType": "address",
          "name": "tokenA",
          "type": "address"
        },
        {
          "internalType": "address",
          "name": "tokenB",
          "type": "address"
        }
      ],
      "name": "pairFor",
      "outputs": [
        {
          "internalType": "address",
          "name": "pair",
          "type": "address"
        }
      ],
      "stateMutability": "pure",
      "type": "function"
    },
    {
      "inputs": [
        {
          "internalType": "address",
          "name": "",
          "type": "address"
        }
      ],
      "name": "purchasedAddress",
      "outputs": [
        {
          "internalType": "uint256",
          "name": "purchasedAmount",
          "type": "uint256"
        },
        {
          "internalType": "uint256",
          "name": "purchasedTokenAmount",
          "type": "uint256"
        },
        {
          "internalType": "uint256",
          "name": "lastReleaseTime",
          "type": "uint256"
        }
      ],
      "stateMutability": "view",
      "type": "function"
    },
    {
      "inputs": [],
      "name": "rate",
      "outputs": [
        {
          "internalType": "uint256",
          "name": "",
          "type": "uint256"
        }
      ],
      "stateMutability": "view",
      "type": "function"
    },
    {
      "inputs": [],
      "name": "release",
      "outputs": [],
      "stateMutability": "nonpayable",
      "type": "function"
    },
    {
      "inputs": [],
      "name": "renounceOwnership",
      "outputs": [],
      "stateMutability": "nonpayable",
      "type": "function"
    },
    {
      "inputs": [
        {
          "internalType": "address",
          "name": "farmManager",
          "type": "address"
        }
      ],
      "name": "setFarmManager",
      "outputs": [],
      "stateMutability": "nonpayable",
      "type": "function"
    },
    {
      "inputs": [
        {
          "internalType": "address",
          "name": "token",
          "type": "address"
        }
      ],
      "name": "setToken",
      "outputs": [],
      "stateMutability": "nonpayable",
      "type": "function"
    },
    {
      "inputs": [
        {
          "internalType": "address",
          "name": "tokenA",
          "type": "address"
        },
        {
          "internalType": "address",
          "name": "tokenB",
          "type": "address"
        }
      ],
      "name": "sortTokens",
      "outputs": [
        {
          "internalType": "address",
          "name": "token0",
          "type": "address"
        },
        {
          "internalType": "address",
          "name": "token1",
          "type": "address"
        }
      ],
      "stateMutability": "pure",
      "type": "function"
    },
    {
      "inputs": [],
      "name": "storeAmount",
      "outputs": [
        {
          "internalType": "uint256",
          "name": "",
          "type": "uint256"
        },
        {
          "internalType": "uint256",
          "name": "",
          "type": "uint256"
        }
      ],
      "stateMutability": "view",
      "type": "function"
    },
    {
      "inputs": [],
      "name": "token",
      "outputs": [
        {
          "internalType": "contract IERC20",
          "name": "",
          "type": "address"
        }
      ],
      "stateMutability": "view",
      "type": "function"
    },
    {
      "inputs": [
        {
          "internalType": "address",
          "name": "newOwner",
          "type": "address"
        }
      ],
      "name": "transferOwnership",
      "outputs": [],
      "stateMutability": "nonpayable",
      "type": "function"
    },
    {
      "inputs": [],
      "name": "wallet",
      "outputs": [
        {
          "internalType": "address payable",
          "name": "",
          "type": "address"
        }
      ],
      "stateMutability": "view",
      "type": "function"
    },
    {
      "inputs": [],
      "name": "weiRaised",
      "outputs": [
        {
          "internalType": "uint256",
          "name": "",
          "type": "uint256"
        }
      ],
      "stateMutability": "view",
      "type": "function"
    },
    {
      "stateMutability": "payable",
      "type": "receive"
    }
  ],
  "bytecode": "0x60a06040523480156200001157600080fd5b5060405162002d2738038062002d27833981810160405260a08110156200003757600080fd5b50805160208201516040830151606084015160809094015160016000559293919290919081615460810186858782620000b7576040805162461bcd60e51b815260206004820152601460248201527f43726f776473616c653a20726174652069732030000000000000000000000000604482015290519081900360640190fd5b6001600160a01b038216620000fe5760405162461bcd60e51b815260040180806020018281038252602581526020018062002d026025913960400191505060405180910390fd5b6001600160a01b038116620001455760405162461bcd60e51b815260040180806020018281038252602481526020018062002cde6024913960400191505060405180910390fd5b60029290925560601b6001600160601b031916608052600180546001600160a01b0319166001600160a01b0390921691909117905542821015620001bb5760405162461bcd60e51b815260040180806020018281038252603381526020018062002c746033913960400191505060405180910390fd5b818111620001fb5760405162461bcd60e51b815260040180806020018281038252603781526020018062002ca76037913960400191505060405180910390fd5b6004919091556005556000620002106200032f565b600680546001600160a01b0319166001600160a01b038316908117909155604051919250906000907f8be0079c531659141344cd1fd0a4f28419497f9722a3daafe3b4186f6b6457e0908290a3506200026862000333565b8210620002bc576040805162461bcd60e51b815260206004820152601960248201527f4e45575750726573616c653a54696d6520427265616b696e6700000000000000604482015290519081900360640190fd5b600a859055600c80546001600160a01b0319166001600160a01b038616179055620002e662000333565b600d556064600e55600f80546001600160a01b0319166001600160a01b039290921691909117905550506011805460ff19169055505068d8d726b7177a800000600b5562000339565b3390565b60055490565b60805160601c61291d620003576000398061074f525061291d6000f3fe60806040526004361061016a5760003560e01c8063624ee331116100d15780638da5cb5b1161008a578063ebf1919a11610064578063ebf1919a146104ba578063ec8ac4d8146104cf578063f2fde38b146104f5578063fc0c546a1461052857610186565b80638da5cb5b1461045d578063b7a8807c14610472578063ce5494bb1461048757610186565b8063624ee331146103785780636d91c0e2146103a6578063715018a6146103eb5780637cd3229a146104005780638033ad7c1461041557806386d1a69f1461044857610186565b80634b2d07cf116101235780634b2d07cf1461024d5780634b6753bc1461027e578063521eb2731461029357806352c8cf0a146102a8578063544caa56146102bd57806357cb1c211461032757610186565b8063144fa6d71461018b5780631515bc2b146101be5780632c4e722e146101e75780633705f69e1461020e5780634042b66f1461022357806347535d7b1461023857610186565b366101865761017761053d565b6101845761018433610546565b005b600080fd5b34801561019757600080fd5b50610184600480360360208110156101ae57600080fd5b50356001600160a01b0316610644565b3480156101ca57600080fd5b506101d361053d565b604080519115158252519081900360200190f35b3480156101f357600080fd5b506101fc6106c8565b60408051918252519081900360200190f35b34801561021a57600080fd5b506101d3610710565b34801561022f57600080fd5b506101fc610719565b34801561024457600080fd5b506101d361071f565b34801561025957600080fd5b50610262610738565b604080516001600160a01b039092168252519081900360200190f35b34801561028a57600080fd5b506101fc610747565b34801561029f57600080fd5b5061026261074d565b3480156102b457600080fd5b50610184610771565b3480156102c957600080fd5b506102f8600480360360408110156102e057600080fd5b506001600160a01b0381358116916020013516610c5c565b60405180836001600160a01b03168152602001826001600160a01b031681526020019250505060405180910390f35b34801561033357600080fd5b5061035a6004803603602081101561034a57600080fd5b50356001600160a01b0316610d3a565b60408051938452602084019290925282820152519081900360600190f35b34801561038457600080fd5b5061038d610d5b565b6040805192835260208301919091528051918290030190f35b3480156103b257600080fd5b50610262600480360360608110156103c957600080fd5b506001600160a01b038135811691602081013582169160409091013516610d65565b3480156103f757600080fd5b50610184610e25565b34801561040c57600080fd5b50610184610ed1565b34801561042157600080fd5b506101846004803603602081101561043857600080fd5b50356001600160a01b03166115e3565b34801561045457600080fd5b50610184611667565b34801561046957600080fd5b506102626118a0565b34801561047e57600080fd5b506101fc6118af565b34801561049357600080fd5b50610184600480360360208110156104aa57600080fd5b50356001600160a01b03166118b5565b3480156104c657600080fd5b506101fc611bd9565b610184600480360360208110156104e557600080fd5b50356001600160a01b0316610546565b34801561050157600080fd5b506101846004803603602081101561051857600080fd5b50356001600160a01b0316611bdf565b34801561053457600080fd5b50610262611ce2565b60055442101590565b6002600054141561058c576040805162461bcd60e51b815260206004820152601f60248201526000805160206126e6833981519152604482015290519081900360640190fd5b60026000553461059c8282611cf1565b60006105a782611df4565b6003549091506105b79083611e51565b6003556105c48382611eb4565b826001600160a01b03166105d6611f28565b6001600160a01b03167f6faf93231a456e552dbc9961f58d9713ee4f2e69d15f1975b050ef0911053a7b8484604051808381526020018281526020019250505060405180910390a36106288383611f2c565b610630611fa6565b61063a8383611df0565b5050600160005550565b61064c611f28565b6001600160a01b031661065d6118a0565b6001600160a01b0316146106a6576040805162461bcd60e51b81526020600482018190526024820152600080516020612852833981519152604482015290519081900360640190fd5b600c80546001600160a01b0319166001600160a01b0392909216919091179055565b600061070b610702600e546106fc6103e86106f6670de0b6b3a7640000600854611fcd90919063ffffffff16565b90611fcd565b90612034565b600a549061208d565b905090565b60115460ff1690565b60035490565b6000600454421015801561070b57505060055442111590565b6014546001600160a01b031690565b60055490565b7f000000000000000000000000000000000000000000000000000000000000000090565b610779611f28565b6001600160a01b031661078a6118a0565b6001600160a01b0316146107d3576040805162461bcd60e51b81526020600482018190526024820152600080516020612852833981519152604482015290519081900360640190fd5b60026000541415610819576040805162461bcd60e51b815260206004820152601f60248201526000805160206126e6833981519152604482015290519081900360640190fd5b600260005561082661053d565b610877576040805162461bcd60e51b815260206004820152601a60248201527f4e45575750726573616c653a68617665206e6f7420636c6f7365000000000000604482015290519081900360640190fd5b6000306001600160a01b031663521eb2736040518163ffffffff1660e01b815260040160206040518083038186803b1580156108b257600080fd5b505afa1580156108c6573d6000803e3d6000fd5b505050506040513d60208110156108dc57600080fd5b50516009549091506000906108f990600a906106fc906004611fcd565b90506000610908826064611fcd565b9050600061091782600a612034565b90506000610926836024612034565b9050600061093584600e612034565b600c54604080516340c10f1960e01b81526001600160a01b038a811660048301526024820188905291519394509116916340c10f199160448082019260009290919082900301818387803b15801561098c57600080fd5b505af11580156109a0573d6000803e3d6000fd5b5050600c54604080516340c10f1960e01b81526001600160a01b038b811660048301526024820188905291519190921693506340c10f199250604480830192600092919082900301818387803b1580156109f957600080fd5b505af1158015610a0d573d6000803e3d6000fd5b505060085460009250610a2291506002611fcd565b6040519091506001600160a01b0388169082156108fc029083906000818181858888f19350505050158015610a5b573d6000803e3d6000fd5b50600854610a69908261208d565b600c54604080516340c10f1960e01b81523060048201526024810186905290519293506001600160a01b03909116916340c10f199160448082019260009290919082900301818387803b158015610abf57600080fd5b505af1158015610ad3573d6000803e3d6000fd5b5050600c54600f546040805163095ea7b360e01b81526001600160a01b03928316600482015260248101889052905191909216935063095ea7b3925060448083019260209291908290030181600087803b158015610b3057600080fd5b505af1158015610b44573d6000803e3d6000fd5b505050506040513d6020811015610b5a57600080fd5b5050600f54600c546040805163f305d71960e01b81526001600160a01b0392831660048201526024810186905260448101869052606481018590523060848201524260a48201529051919092169163f305d71991849160c48082019260609290919082900301818588803b158015610bd157600080fd5b505af1158015610be5573d6000803e3d6000fd5b50505050506040513d6060811015610bfc57600080fd5b50506011805460ff19166001179055436012819055426013556040805191825230602083015280517fe23e82d663d6aa4590de2b696b990fa60b985f3ec0b57e3eac25e082968604959281900390910190a1505060016000555050505050565b600080826001600160a01b0316846001600160a01b03161415610cb05760405162461bcd60e51b81526004018080602001828103825260238152602001806127ad6023913960400191505060405180910390fd5b826001600160a01b0316846001600160a01b031610610cd0578284610cd3565b83835b90925090506001600160a01b038216610d33576040805162461bcd60e51b815260206004820152601c60248201527f50616e63616b654c6962726172793a205a45524f5f4144445245535300000000604482015290519081900360640190fd5b9250929050565b60076020526000908152604090208054600182015460029092015490919083565b6008546009549091565b6000806000610d748585610c5c565b604080516bffffffffffffffffffffffff19606094851b811660208084019190915293851b81166034830152825160288184030181526048830184528051908501206001600160f81b031960688401529a90941b9093166069840152607d8301989098527fd0d4c4cd0848c93cb4fd1f498d7013ee6bfb25783ea21593d5834f5d250ece66609d808401919091528851808403909101815260bd909201909752805196019590952095945050505050565b610e2d611f28565b6001600160a01b0316610e3e6118a0565b6001600160a01b031614610e87576040805162461bcd60e51b81526020600482018190526024820152600080516020612852833981519152604482015290519081900360640190fd5b6006546040516000916001600160a01b0316907f8be0079c531659141344cd1fd0a4f28419497f9722a3daafe3b4186f6b6457e0908390a3600680546001600160a01b0319169055565b60026000541415610f17576040805162461bcd60e51b815260206004820152601f60248201526000805160206126e6833981519152604482015290519081900360640190fd5b600260005560115460ff16610f73576040805162461bcd60e51b815260206004820152601760248201527f4e45575750726573616c653a6265656e206c6f636b6564000000000000000000604482015290519081900360640190fd5b601254606443031015610fb75760405162461bcd60e51b815260040180806020018281038252602181526020018061272c6021913960400191505060405180910390fd5b600060125443039050436012819055506000600f60009054906101000a90046001600160a01b03166001600160a01b031663c45a01556040518163ffffffff1660e01b815260040160206040518083038186803b15801561101757600080fd5b505afa15801561102b573d6000803e3d6000fd5b505050506040513d602081101561104157600080fd5b5051600c54600f54604080516315ab88c960e31b815290519394506000936001600160a01b038087169463e6a43905949082169391169163ad5c464891600480820192602092909190829003018186803b15801561109e57600080fd5b505afa1580156110b2573d6000803e3d6000fd5b505050506040513d60208110156110c857600080fd5b5051604080516001600160e01b031960e086901b1681526001600160a01b039384166004820152929091166024830152516044808301926020929190829003018186803b15801561111857600080fd5b505afa15801561112c573d6000803e3d6000fd5b505050506040513d602081101561114257600080fd5b5051604080516370a0823160e01b815230600482015290519192506000916001600160a01b038416916370a08231916024808301926020929190829003018186803b15801561119057600080fd5b505afa1580156111a4573d6000803e3d6000fd5b505050506040513d60208110156111ba57600080fd5b5051905060006111d1856106fc84620186a0611fcd565b90506111de826064611fcd565b8111156111f3576111f0826064611fcd565b90505b60008111611248576040805162461bcd60e51b815260206004820152601e60248201527f4e45575750726573616c653a68617665206e6f74206c69717569646974790000604482015290519081900360640190fd5b600f546040805163095ea7b360e01b81526001600160a01b0392831660048201526024810184905290519185169163095ea7b3916044808201926020929091908290030181600087803b15801561129e57600080fd5b505af11580156112b2573d6000803e3d6000fd5b505050506040513d60208110156112c857600080fd5b5050600f54600c5460408051629d473b60e21b81526001600160a01b03928316600482015260248101859052600060448201819052606482018190523060848301524260a48301528251479594909416936302751cec9360c4808501949193918390030190829087803b15801561133e57600080fd5b505af1158015611352573d6000803e3d6000fd5b505050506040513d604081101561136857600080fd5b5050601454604080516302b6b8eb60e31b81524784810360048301819052925190936001600160a01b0316916315b5c75891849160248082019260009290919082900301818588803b1580156113bd57600080fd5b505af11580156113d1573d6000803e3d6000fd5b5050600c54604080516370a0823160e01b815230600482015290516000955061145d9450600293506001600160a01b03909216916370a0823191602480820192602092909190829003018186803b15801561142b57600080fd5b505afa15801561143f573d6000803e3d6000fd5b505050506040513d602081101561145557600080fd5b505190611fcd565b600c5460408051630852cd8d60e31b81526004810184905290519293506001600160a01b03909116916342966c689160248082019260009290919082900301818387803b1580156114ad57600080fd5b505af11580156114c1573d6000803e3d6000fd5b5050601454600c54604080516370a0823160e01b815230600482015290516001600160a01b03938416955063100bc491945091909216916370a08231916024808301926020929190829003018186803b15801561151d57600080fd5b505afa158015611531573d6000803e3d6000fd5b505050506040513d602081101561154757600080fd5b5051604080516001600160e01b031960e085901b168152600481019290925251602480830192600092919082900301818387803b15801561158757600080fd5b505af115801561159b573d6000803e3d6000fd5b5050604080518c815290517f596dbccc52ba7f4fe0d0157edfe073e95ed316a7b11976e72c373a3da75798f49350908190036020019150a15050600160005550505050505050565b6115eb611f28565b6001600160a01b03166115fc6118a0565b6001600160a01b031614611645576040805162461bcd60e51b81526020600482018190526024820152600080516020612852833981519152604482015290519081900360640190fd5b601480546001600160a01b0319166001600160a01b0392909216919091179055565b600260005414156116ad576040805162461bcd60e51b815260206004820152601f60248201526000805160206126e6833981519152604482015290519081900360640190fd5b600260005560115460ff161515600114611704576040805162461bcd60e51b81526020600482015260136024820152724e45575750726573616c653a4c6f636b696e6760681b604482015290519081900360640190fd5b33600090815260076020526040902060018101546117225750611899565b806002015460135411156117395760135460028201555b6000611758610e106106f684600201544261208d90919063ffffffff16565b9050600061177d826106fc60026106fc60648860010154611fcd90919063ffffffff16565b9050600081116117c7576040805162461bcd60e51b815260206004820152601060248201526f4e45575750726573616c653a5a65726f60801b604482015290519081900360640190fd5b80836001015410156117da575060018201545b60018301546117e9908261208d565b6001840155426002840155600c54604080516340c10f1960e01b81523360048201526024810184905290516001600160a01b03909216916340c10f199160448082019260009290919082900301818387803b15801561184757600080fd5b505af115801561185b573d6000803e3d6000fd5b50506040805184815290513393507ff517348915efcb23f89d2e88ba5afa6dcf7e5a45a9dcec7895a2f02b42be8e5692509081900360200190a25050505b6001600055565b6006546001600160a01b031690565b60045490565b6118bd611f28565b6001600160a01b03166118ce6118a0565b6001600160a01b031614611917576040805162461bcd60e51b81526020600482018190526024820152600080516020612852833981519152604482015290519081900360640190fd5b6002600054141561195d576040805162461bcd60e51b815260206004820152601f60248201526000805160206126e6833981519152604482015290519081900360640190fd5b6002600055600c54604080516370a0823160e01b815230600482015290516119f29284926001600160a01b03909116916370a0823191602480820192602092909190829003018186803b1580156119b357600080fd5b505afa1580156119c7573d6000803e3d6000fd5b505050506040513d60208110156119dd57600080fd5b5051600c546001600160a01b031691906120ea565b600c546040805163f2fde38b60e01b81526001600160a01b0384811660048301529151919092169163f2fde38b91602480830192600092919082900301818387803b158015611a4057600080fd5b505af1158015611a54573d6000803e3d6000fd5b50505050611a628147612141565b600f546040805163c45a015560e01b815290516000926001600160a01b03169163c45a0155916004808301926020929190829003018186803b158015611aa757600080fd5b505afa158015611abb573d6000803e3d6000fd5b505050506040513d6020811015611ad157600080fd5b5051604080516370a0823160e01b81526001600160a01b03858116600483015291519293509083169163a9059cbb91859184916370a08231916024808301926020929190829003018186803b158015611b2957600080fd5b505afa158015611b3d573d6000803e3d6000fd5b505050506040513d6020811015611b5357600080fd5b5051604080516001600160e01b031960e086901b1681526001600160a01b03909316600484015260248301919091525160448083019260209291908290030181600087803b158015611ba457600080fd5b505af1158015611bb8573d6000803e3d6000fd5b505050506040513d6020811015611bce57600080fd5b505060016000555050565b60125490565b611be7611f28565b6001600160a01b0316611bf86118a0565b6001600160a01b031614611c41576040805162461bcd60e51b81526020600482018190526024820152600080516020612852833981519152604482015290519081900360640190fd5b6001600160a01b038116611c865760405162461bcd60e51b81526004018080602001828103825260268152602001806127066026913960400191505060405180910390fd5b6006546040516001600160a01b038084169216907f8be0079c531659141344cd1fd0a4f28419497f9722a3daafe3b4186f6b6457e090600090a3600680546001600160a01b0319166001600160a01b0392909216919091179055565b6001546001600160a01b031690565b611cfb8282612226565b600b5460085410611d4a576040805162461bcd60e51b815260206004820152601460248201527304e45575750726573616c653a48617264204361760641b604482015290519081900360640190fd5b670de0b6b3a76400008111611d905760405162461bcd60e51b815260040180806020018281038252602281526020018061289c6022913960400191505060405180910390fd5b68056bc75e2d6310000081611da433612289565b011115611df0576040805162461bcd60e51b8152602060048201526015602482015274139155d5d41c995cd85b194e909d5e481b1a5b5a5d605a1b604482015290519081900360640190fd5b5050565b600080611dff6106c8565b905060008111611e405760405162461bcd60e51b815260040180806020018281038252602281526020018061280f6022913960400191505060405180910390fd5b611e4a8382612034565b9392505050565b600082820183811015611eab576040805162461bcd60e51b815260206004820152601b60248201527f536166654d6174683a206164646974696f6e206f766572666c6f770000000000604482015290519081900360640190fd5b90505b92915050565b6001600160a01b0382166000908152600760205260409020600101805482019055600954611ee29082611e51565b6009556040805182815290516001600160a01b038416917f1223bf009f330c77ffbf8c0ee564ae892f798fce1ba1d10267a9b9eda63357e0919081900360200190a25050565b3390565b6000611f4f670de0b6b3a76400006106f684600854611e5190919063ffffffff16565b90506000611f65610e106106fc846101f4611fcd565b90506000611f7e600d5483611e5190919063ffffffff16565b9050611f88610747565b8111611f9657505050611df0565b611f9f816122a4565b5050505050565b600854611fb39034611e51565b600855336000908152600760205260409020805434019055565b6000808211612023576040805162461bcd60e51b815260206004820152601a60248201527f536166654d6174683a206469766973696f6e206279207a65726f000000000000604482015290519081900360640190fd5b81838161202c57fe5b049392505050565b60008261204357506000611eae565b8282028284828161205057fe5b0414611eab5760405162461bcd60e51b81526004018080602001828103825260218152602001806128316021913960400191505060405180910390fd5b6000828211156120e4576040805162461bcd60e51b815260206004820152601e60248201527f536166654d6174683a207375627472616374696f6e206f766572666c6f770000604482015290519081900360640190fd5b50900390565b604080516001600160a01b038416602482015260448082018490528251808303909101815260649091019091526020810180516001600160e01b031663a9059cbb60e01b17905261213c908490612380565b505050565b80471015612196576040805162461bcd60e51b815260206004820152601d60248201527f416464726573733a20696e73756666696369656e742062616c616e6365000000604482015290519081900360640190fd5b6040516000906001600160a01b0384169083908381818185875af1925050503d80600081146121e1576040519150601f19603f3d011682016040523d82523d6000602084013e6121e6565b606091505b505090508061213c5760405162461bcd60e51b815260040180806020018281038252603a81526020018061274d603a913960400191505060405180910390fd5b61222e61071f565b61227f576040805162461bcd60e51b815260206004820152601860248201527f54696d656443726f776473616c653a206e6f74206f70656e0000000000000000604482015290519081900360640190fd5b611df08282612431565b6001600160a01b031660009081526007602052604090205490565b6122ac61053d565b156122fe576040805162461bcd60e51b815260206004820152601e60248201527f54696d656443726f776473616c653a20616c726561647920636c6f7365640000604482015290519081900360640190fd5b600554811161233e5760405162461bcd60e51b815260040180806020018281038252603f8152602001806127d0603f913960400191505060405180910390fd5b600554604080519182526020820183905280517f46711e222f558a07afd26e5e71b48ecb0a8b2cdcd40faeb1323e05e2c76a2f329281900390910190a1600555565b60606123d5826040518060400160405280602081526020017f5361666545524332303a206c6f772d6c6576656c2063616c6c206661696c6564815250856001600160a01b03166124c89092919063ffffffff16565b80519091501561213c578080602001905160208110156123f457600080fd5b505161213c5760405162461bcd60e51b815260040180806020018281038252602a8152602001806128be602a913960400191505060405180910390fd5b6001600160a01b0382166124765760405162461bcd60e51b815260040180806020018281038252602a815260200180612872602a913960400191505060405180910390fd5b80611df0576040805162461bcd60e51b815260206004820152601960248201527f43726f776473616c653a20776569416d6f756e74206973203000000000000000604482015290519081900360640190fd5b60606124d784846000856124df565b949350505050565b6060824710156125205760405162461bcd60e51b81526004018080602001828103825260268152602001806127876026913960400191505060405180910390fd5b6125298561263b565b61257a576040805162461bcd60e51b815260206004820152601d60248201527f416464726573733a2063616c6c20746f206e6f6e2d636f6e7472616374000000604482015290519081900360640190fd5b60006060866001600160a01b031685876040518082805190602001908083835b602083106125b95780518252601f19909201916020918201910161259a565b6001836020036101000a03801982511681845116808217855250505050505090500191505060006040518083038185875af1925050503d806000811461261b576040519150601f19603f3d011682016040523d82523d6000602084013e612620565b606091505b5091509150612630828286612641565b979650505050505050565b3b151590565b60608315612650575081611e4a565b8251156126605782518084602001fd5b8160405162461bcd60e51b81526004018080602001828103825283818151815260200191508051906020019080838360005b838110156126aa578181015183820152602001612692565b50505050905090810190601f1680156126d75780820380516001836020036101000a031916815260200191505b509250505060405180910390fdfe5265656e7472616e637947756172643a207265656e7472616e742063616c6c004f776e61626c653a206e6577206f776e657220697320746865207a65726f20616464726573734e45575750726573616c653a6e6565642031303020626c6f636b73207370616365416464726573733a20756e61626c6520746f2073656e642076616c75652c20726563697069656e74206d61792068617665207265766572746564416464726573733a20696e73756666696369656e742062616c616e636520666f722063616c6c50616e63616b654c6962726172793a204944454e544943414c5f41444452455353455354696d656443726f776473616c653a206e657720636c6f73696e672074696d65206973206265666f72652063757272656e7420636c6f73696e672074696d654e45575750726573616c653a63616e206e6f7420616e7920746f6b656e206e6f7721536166654d6174683a206d756c7469706c69636174696f6e206f766572666c6f774f776e61626c653a2063616c6c6572206973206e6f7420746865206f776e657243726f776473616c653a2062656e656669636961727920697320746865207a65726f20616464726573734e45575750726573616c653a4d6179626520627579206c6974746c65206d6f72653f5361666545524332303a204552433230206f7065726174696f6e20646964206e6f742073756363656564a26469706673582212201026e5868d8d22fdbf13fabf27ff54d1f1111ce79388768004d4dc47720a21ba64736f6c634300060c003354696d656443726f776473616c653a206f70656e696e672074696d65206973206265666f72652063757272656e742074696d6554696d656443726f776473616c653a206f70656e696e672074696d65206973206e6f74206265666f726520636c6f73696e672074696d6543726f776473616c653a20746f6b656e20697320746865207a65726f206164647265737343726f776473616c653a2077616c6c657420697320746865207a65726f2061646472657373",
  "linkReferences": {},
  "deployedLinkReferences": {}
}